:100000000C94CC000C94E9000C94E9000C94E900E9
:100010000C94E9000C94E9000C94E9000C94E900BC
:100020000C94E9000C94E9000C94E9000C94030290
:100030000C94E9000C94E9000C94E9000C94E9009C
:100040000C94E5010C94E9000C94E9000C94E9008F
:100050000C94E9000C94E9000C94E9000C94E9007C
:100060000C94E9000C94E900084AD73B3BCE016EA2
:1000700084BCBFFDC12F3D6C74319ABD56833DDAFF
:100080003D00C77F11BED9E4BB4C3E916BAAAABE0E
:10009000000000803F006E616E00696E66000040E7
:1000A0007A10F35A00A0724E18090010A5D4E80087
:1000B00000E87648170000E40B54020000CA9A3B9F
:1000C000000000E1F5050000809698000000404225
:1000D0000F000000A08601000000102700000000B3
:1000E000E803000000006400000000000A000000B7
:1000F00000000100000000002C76D888DC674F0863
:1001000023DFC1DFAE59E1B1B796E5E3E453C63A68
:10011000E651997696E8E6C28426EB898C9B62EDDF
:10012000407C6FFCEFBC9C9F40F2BAA56FA5F49099
:10013000055A2AF75C936B6CF9676DC11BFCE0E410
:100140000D47FEF520E6B500D0ED902E0300943566
:1001500077050080841E080000204E0A000000C8B9
:100160000C333333330F986E12831141EF8D21140A
:10017000893BE65516CFFEE6DB18D1844B381BF7DA
:100180007C1D901DA4BBE424203284725E22810079
:10019000C9F124ECA1E53D2711241FBECFEFD8E023
:1001A000DEBFCDBF21E0A4E7B1E001C01D92AE38B3
:1001B000B207E1F711E0A0E0B1E0E6E0FBE102C048
:1001C00005900D92A437B107D9F70E944C020C9408
:1001D000810D0C9400009091C00095FFFCCF80939E
:1001E000C60080E090E008958093BB0084E880938F
:1001F000BC008091BC0087FFFCCF8091B900887F54
:100200008033C1F058F48831C9F018F4811114C05A
:1002100011C0803279F0883289F00EC0883451F0F4
:1002200028F4883339F0803449F006C0803531F045
:10023000883511F481E0089582E0089580E0089502
:1002400084E98093BC008091BC0084FDFCCF0895BC
:1002500084EA8093BC008091BC0087FFFCCF809132
:10026000B900887F883021F0803111F081E0089555
:1002700080E008950F931F93CF93DF93D82F8B01C6
:10028000C3E10E942801882341F0CF3F11F0C15003
:10029000F8CF0E942001C1E01DC086EA0E94F40050
:1002A000882331F0CF3F99F70E942001C2E012C0AD
:1002B0008D2F0E94F40081110AC0F80180810E94F4
:1002C000F400C82F811105C00E94200103C0C3E0C3
:1002D00001C0C4E08C2FDF91CF911F910F91089541
:1002E000FF920F931F93CF93DF93882309F448C0A5
:1002F0008A01F62ED82FC3E10E942801882329F015
:10030000CC2309F43FC0C150F7CF86EA0E94F40025
:10031000882331F0C111F7CF0E942001C2E039C01B
:100320008F2D0E94F40081112FC00E94280181119D
:100330002DC087EA0E94F400C82F811129C0F8015E
:100340008D2F94EC813059F09093BC002091BC002B
:1003500027FFFCCF2091BB0021938150F3CFD150D8
:10036000F801ED0FF11D84E88093BC008091BC0082
:1003700087FFFCCF8091BB0080830E94200109C0D1
:10038000C0E007C0C1E005C0C3E003C0C4E001C0D5
:10039000C5E08C2FDF91CF911F910F91FF900895B1
:1003A00090917C00907F8F70892B80937C0080914E
:1003B0007A00806480937A0080917A0086FDFCCF79
:1003C000809178009091790008951F920F920FB656
:1003D0000F9211248F939F9386B58A5F86BD1092EA
:1003E0008701109286018091840190918501019688
:1003F00090938501809384019F918F910F900FBE00
:100400000F901F9018951F920F920FB60F92112404
:100410002F938F939F93EF93FF93809100018630EA
:10042000E0F42091000181E090E001C0880F2A955E
:10043000EAF785B9E0910001F0E0EE0FFF1FE55EFD
:10044000FE4F8081918190938900809388008091F4
:1004500000018F5F8093000115C0809100018630FC
:1004600089F4E0910001F0E0EE0FFF1FE55EFE4F22
:10047000808191819093890080938800109200017F
:1004800085B115B8FF91EF919F918F912F910F90AA
:100490000FBE0F901F901895CF93DF93CDB7DEB7A7
:1004A0006D970FB6F894DEBF0FBECDBF84B11FEFBE
:1004B00014B91092810086B3876086BB8091810059
:1004C0008860809381001092850010928400809152
:1004D0001B0190911C01909389008093880080916A
:1004E0006F00826080936F008091810082608093B2
:1004F000810081E085B9789480917C00806480934C
:100500007C0080917A00876080937A0080917A00E5
:10051000806880937A0080917E0010937E0020E1B5
:1005200030E03093C5002093C40098E19093C1005F
:100530008EE08093C2003093C5002093C400909356
:10054000C1008093C20081E091E090938B01809381
:100550008A0187B18F7C87B988B18F7C88B9109266
:10056000B90088E48093B80084E08093BC008AE0FE
:100570008C8308E00B831D82AE014F5F5F4F60E00C
:1005800081E00E94700189811F928F9389E591E03B
:100590009F938F930E946B0DBE016B5F7F4F8DE227
:1005A0000E943A01BE016C5F7F4F8CE20E943A01CB
:1005B000BE016D5F7F4F81E30E943A010D83BE0152
:1005C0006B5F7F4F8DE20E943A012FEF39EF40E0E1
:1005D000215030404040E1F700C000008CEF8D8397
:1005E0001F938F9308E611E01F930F930E946B0DEA
:1005F000BE016B5F7F4F8EE10E943A0185E08E83E2
:100600001F928F931F930F930E946B0DBE016A5F21
:100610007F4F8FE10E943A010FB6F894DEBF0FBE04
:10062000CDBFE8E7F1E0F887EF832DE431E0388FC4
:100630002F8B41E451E05E8B4D8B85E391E09C8BE9
:100640008B8BE9E2F1E0FA8BE98B00E010E01C868D
:100650001B861A861986098F063009F4F7C1EF89BF
:10066000F88DE080F180EB89FC89C080D180E98938
:10067000FA8920803180ED89FE8980819181B701DE
:10068000681B790B072E000C880B990B0E94160C27
:100690004B015C01B60162197309072E000C880B2F
:1006A000990B0E94160C9B01AC01C501B4010E947C
:1006B000730B6D877E878F87988BB6010D2C000C8E
:1006C000880B990B0E94160C4B015C01B701FF0CC3
:1006D000880B990B0E94160C2B013C01A50194017B
:1006E0006D857E858F8598890E94FA0C9B01AC01EF
:1006F000C301B2010E948F0A6A8F7B8F8C8F9D8FFE
:10070000053009F45CC0043011F486E001C0802F8C
:100710000E94D0012816390690F08C159D0588F0AE
:100720009C0149855A85241B350B2C3F5FEF35070B
:1007300054F0253031053CF489859A8506C0C10105
:1007400004C0C60102C09A878987BC0180E090E09E
:100750000E94140C2D853E854F8558890E94FA0C05
:100760002A8D3B8D4C8D5D8D0E94900A0E94E50B79
:1007700080E090E00E94140C2FE832EC45E75DE346
:100780000E94FA0C6B017C01EF81F8856081718118
:1007900080E090E00E94140C27ED33EA40E75FE32D
:1007A0000E94FA0C9B01AC01C701B6010E94900A9D
:1007B0000E94E50BEF81F885718360832FC1AE0144
:1007C0004F5F5F4F62E382E00E947001AE014F5FB6
:1007D0005F4F64E382E00E9470016A80712C762C86
:1007E00066248981680E711CAE014F5F5F4F66E31E
:1007F00082E00E9470016A8170E0762F662789810D
:10080000680F711D072E000C880B990B0E94160CA7
:1008100020E030E040E85BE30E94FA0C6B017C01D1
:10082000B301770C880B990B0E94160C20E030E086
:1008300040E85BE30E94FA0CA70196010E940F0BAF
:1008400020E030E044E353E40E94FA0C2BED3FE05B
:1008500049E450E40E94730B6B017C0120E030E01E
:10086000A9010E946E0B87FF0AC020E030E044EB34
:1008700053E4C701B6010E94900A6B017C01FF920C
:10088000EF92DF92CF922CE631E03F932F930E94BC
:100890006B0DB101330C880B990B0E94160C2B01C8
:1008A0003C010F900F900F900F900F900F909B01B5
:1008B000AC01C701B6010E94ED0C1816ACF420E0A3
:1008C00030E046E953E4C701B6010E946E0B87FF92
:1008D0000BC0409274015092750160927601709243
:1008E00077015301420143C0A7019601C501B4013C
:1008F0000E94ED0C181654F020E030E046E953E475
:10090000C701B6010E94ED0C87FD09C080927401F9
:1009100090927501A0927601B092770128C0209143
:100920007401309175014091760150917701C701B2
:10093000B6010E948F0A9F7720E030E040E85FE335
:100940000E946E0B87FF09C0809074019090750122
:10095000A0907601B09077010AC0C0927401D09245
:100960007501E0927601F092770146015701BF923E
:10097000AF929F928F928CE691E09F938F930E940B
:100980006B0D8091740190917501A0917601B091E9
:100990007701BF93AF939F938F9320E731E03F930D
:1009A0002F930E946B0DA50194016D857E858F8527
:1009B00098890E94FA0C2A8D3B8D4C8D5D8D0E948A
:1009C000900A0E94E50B80E090E00E94140C2DEC50
:1009D0003CEC4CE45FE30E94FA0C6B017C01EF817C
:1009E000F8856081718180E090E00E94140C2DEC0C
:1009F0003CEC4CE45EE30E94FA0C9B01AC01C701A5
:100A0000B6010E94900A0E94E50BEF81F885718380
:100A100060830FB6F894DEBF0FBECDBFEF81F885BF
:100A2000208131814B855C85420F531F5C874B874A
:100A3000C801880F991FFC01E55EFE4F31832083BA
:100A4000FC01E15FFE4F318320830AC080E49CE912
:100A5000EB85FC858E1B9F0B9093280180932701CB
:100A60000F5F1F4F2F8138852E5F3F4F38872F83B1
:100A70004F89588D4E5F5F4F588F4F8B8D899E8960
:100A800002969E8B8D8BEB89FC893296FC8BEB8BCF
:100A900029893A892E5F3F4F3A8B298B0730110500
:100AA00009F0D9CDBECDA0E1B0E0E9E5F5E00C94C8
:100AB000D0087C011B016A01FC0117821682838128
:100AC00081FF44C39E012F5F3F4F3901F70193819E
:100AD000F10193FD859193FF81911F01882309F412
:100AE00031C3853239F493FD859193FF81911F01C4
:100AF000853239F4B70190E00E94F509560165018D
:100B0000E5CF10E0512C912CFFE1F915D8F08B3294
:100B100079F038F4803279F08332A1F4F92DF06164
:100B20002EC08D3261F0803369F4292D21602DC0F3
:100B3000392D3260932E892D8460982E2AC0E92D9C
:100B4000E86015C097FC2DC020ED280F2A3088F4EE
:100B500096FE06C03AE0139F200D1124122F19C0F3
:100B60008AE0589E200D1124522EE92DE0629E2E1F
:100B700010C08E3231F496FCE5C2F92DF0649F2E40
:100B800008C08C3621F4292D2068922E02C08836A8
:100B900041F4F10193FD859193FF81911F01811132
:100BA000B3CF9BEB980F933020F4992D9061805E2A
:100BB00007C09BE9980F933008F066C1992D9F7E7E
:100BC00096FF16E09F73992E853619F49064992E3E
:100BD00008C0863621F4392F3068932E02C01111D7
:100BE000115097FE07C01C3350F444244394410E27
:100BF00027E00BC0183038F027E017E005C027E0E9
:100C00009CE3492E02C0212F412C560184E0A80EFE
:100C1000B11CF6016081718182819381042DA30151
:100C20000E9407096C01F981FC87F0FF02C0F3FF05
:100C300006C091FC06C092FE06C000E205C00DE2AF
:100C400003C00BE201C000E08C858C7019F001112B
:100C50005AC29BC297FE10C04C0CFC85F4FF04C026
:100C60008A81813309F44A94141474F528E0241518
:100C700078F588E0482E2CC096FC2AC0812F90E0A1
:100C80008C159D059CF03CEFC3163FEFD30674F026
:100C9000892D8068982E0AC0E2E0F0E0EC0FFD1F7D
:100CA000E10FF11D8081803319F411501111F4CF3F
:100CB00097FE0EC044244394410E812F90E0C81645
:100CC000D9062CF41C1904C04424439401C010E03C
:100CD00097FE06C01C141D0434F4C601019605C01D
:100CE00085E090E002C081E090E0011101961123BF
:100CF00031F0212F30E02F5F3F4F820F931F252DC2
:100D000030E08217930714F4581A01C0512C892D32
:100D1000897049F4552039F0B70180E290E00E94D3
:100D2000F5095A94F7CF002329F0B701802F90E0FE
:100D30000E94F50993FC09C0552039F0B70180E302
:100D400090E00E94F5095A94F7CF97FE4CC04601F7
:100D5000D7FE02C0812C912CC60188199909F30194
:100D6000E80FF91FFE87ED87960124193109388BAA
:100D70002F87012F10E01195019511093FEF831680
:100D8000930629F4B7018EE290E00E94F509C81499
:100D9000D9044CF08F8598898815990524F4ED8540
:100DA000FE85818101C080E3F1E08F1A91082D85D5
:100DB0003E852F5F3F4F3E872D87801691062CF092
:100DC000B70190E00E94F509D9CFC814D90441F4C5
:100DD0009A81963320F4953319F43C8534FF81E3EE
:100DE000B70190E04EC08A81813319F09C859F7EC7
:100DF0009C87B70190E00E94F509111105C094FC91
:100E000018C085E690E017C0B7018EE290E00E941E
:100E1000F5091E5F82E001E0080FF301E80FF11D04
:100E20008081B70190E00E94F509802F0113F3CF74
:100E3000E6CF85E490E0B7010E94F509D7FC06C033
:100E4000C114D10441F4EC85E4FF05C0D194C194F0
:100E5000D1088DE201C08BE2B70190E00E94F50954
:100E600080E32AE0C216D1042CF08F5FFAE0CF1A9B
:100E7000D108F7CFB70190E00E94F509B701C6018C
:100E8000C0960E94F50954C1833631F0833779F05A
:100E9000833509F056C020C0560132E0A30EB11CC4
:100EA000F6018081898301E010E0630112C05601E0
:100EB000F2E0AF0EB11CF601C080D18096FE03C0F7
:100EC000612F70E002C06FEF7FEFC6010E94EA0958
:100ED0008C01F92DFF7714C0560122E0A20EB11C3F
:100EE000F601C080D18096FE03C0612F70E002C081
:100EF0006FEF7FEFC6010E94DF098C01F92DF068CA
:100F00009F2EF3FD1AC0852D90E008171907A8F44D
:100F1000B70180E290E00E94F5095A94F4CFF601FF
:100F200097FC859197FE81916F01B70190E00E9437
:100F3000F50951105A94015011090115110579F75D
:100F4000F7C0843611F0893661F5560197FE09C065
:100F500024E0A20EB11CF60160817181828193812F
:100F60000AC0F2E0AF0EB11CF60160817181072E5C
:100F7000000C880B990BF92DFF769F2E97FF09C067
:100F800090958095709561957F4F8F4F9F4FF0683A
:100F90009F2E2AE030E0A3010E94310AC82EC61815
:100FA0003FC0092D853721F40F7E2AE030E01DC0B7
:100FB000097F8F3691F018F4883559F0C3C0803717
:100FC00019F0883711F0BEC0006104FF09C0046049
:100FD00007C094FE08C0066006C028E030E005C0E7
:100FE00020E130E002C020E132E0560107FF09C0F5
:100FF00084E0A80EB11CF601608171818281938129
:1010000008C0F2E0AF0EB11CF6016081718180E092
:1010100090E0A3010E94310AC82EC6180F77902EC7
:1010200096FE0BC0092D0E7FC11650F494FE0AC027
:1010300092FC08C0092D0E7E05C0DC2C092D03C0D2
:10104000DC2C01C0D12E04FF0DC0FE01EC0DF11D02
:101050008081803311F4097E09C002FF06C0D39459
:10106000D39404C0802F867809F0D39403FD11C077
:1010700000FF06C01C2DD51480F4150D1D190DC0E0
:10108000D51458F4B70180E290E00E94F509D3949A
:10109000F7CFD51410F45D1801C0512C04FF10C017
:1010A000B70180E390E00E94F50902FF17C001FD3F
:1010B00003C088E790E002C088E590E0B7010CC06B
:1010C000802F867859F001FF02C08BE201C080E2D8
:1010D00007FD8DE2B70190E00E94F509C11638F4D2
:1010E000B70180E390E00E94F5091150F7CFCA9450
:1010F000F301EC0DF11D8081B70190E00E94F5092C
:10110000C110F5CF15C0F4E0F51560F584E0581A6C
:1011100093FE1FC0011127C02C8523FF2AC006E9BA
:1011200010E0392D3071932EF8018491811124C083
:10113000552009F4E4CCB70180E290E00E94F50963
:101140005A94F6CFF7018681978126C08FEF9FEFE3
:1011500023C0B70180E290E00E94F5095A94511033
:10116000F8CFD8CF512CB701802F90E00E94F5091D
:10117000D3CF0AE910E0D5CF91108052B70190E0AB
:101180000E94F5090F5F1F4FCFCF23E0251510F404
:1011900083E0BDCF512CC0CF6096E2E10C94EC0807
:1011A0002F923F924F925F926F927F928F929F9277
:1011B000AF92BF92CF92DF92EF92FF920F931F9365
:1011C000CF93DF93CDB7DEB7CA1BDB0B0FB6F89416
:1011D000DEBF0FBECDBF09942A88398848885F8456
:1011E0006E847D848C849B84AA84B984C884DF80C7
:1011F000EE80FD800C811B81AA81B981CE0FD11DAB
:101200000FB6F894DEBF0FBECDBFED0108952830B4
:1012100008F027E03327DA01990F311D87FD91602F
:1012200000966105710539F432602E5F3D9330E31D
:101230002A95E1F708959F3F30F0803871056105E8
:1012400009F03C5F3C5F3D93913008F08068911D50
:10125000DF93CF931F930F93FF92EF92192F987FF5
:101260009695E92F96959695E90FFF27E850FF4F41
:1012700099273327EE24FF24A701E701059008945E
:10128000079428F4360FE71EF81E491F511D660FFC
:10129000771F881F991F0694A1F70590079428F4DB
:1012A000E70EF81E491F561FC11D770F881F991F93
:1012B000661F0694A1F70590079428F4F80E491FBD
:1012C000561FC71FD11D880F991F661F771F0694D1
:1012D000A1F70590079420F4490F561FC71FD81F88
:1012E000990F661F771F881F0694A9F784911095A0
:1012F000177041F0D695C79557954795F794E794A1
:101300001A95C1F7EEE9F0E06894159015913591C2
:101310006591959105907FE27395E118F10A430B71
:10132000560BC90BD009C0F7E10CF11E431F561F25
:10133000C91FD01D7EF4703311F48A95E6CFE8946E
:10134000015030F0080F0AF40027021708F4202F8C
:101350002395022F7A3328F079E37D932A95E9F7D4
:1013600010C07D932A9589F60694979567953795D1
:1013700017951794E118F10A430B560BC90BD009C6
:1013800098F023957E9173957A3308F070E37C93FF
:101390002013B8F77E9170617D9330F0839571E3EF
:1013A0007D9370E32A95E1F71124EF90FF900F9160
:1013B0001F91CF91DF91992787FD90950895FC01AA
:1013C0000590615070400110D8F7809590958E0F70
:1013D0009F1F0895FC016150704001900110D8F7E3
:1013E000809590958E0F9F1F08950F931F93CF9315
:1013F000DF93FB01238121FD03C08FEF9FEF2CC002
:1014000022FF16C046815781248135814217530738
:1014100044F4A081B1819D012F5F3F4F3183208330
:101420008C93268137812F5F3F4F3783268314C0EB
:101430008B01EC01FB010084F185E02D0995892BDE
:10144000E1F6D80116968D919C9117970196179603
:101450009C938E931697CE01DF91CF911F910F91A0
:101460000895FA01AA27283051F1203181F1E8943A
:101470006F936E7F6E5F7F4F8F4F9F4FAF4FB1E087
:101480003ED0B4E03CD0670F781F891F9A1FA11D82
:10149000680F791F8A1F911DA11D6A0F711D811D83
:1014A000911DA11D20D009F468943F912AE0269F48
:1014B00011243019305D3193DEF6CF010895462FA7
:1014C0004770405D4193B3E00FD0C9F7F6CF462F88
:1014D0004F70405D4A3318F0495D31FD40524193F1
:1014E00002D0A9F7EACFB4E0A695979587957795AE
:1014F0006795BA95C9F700976105710508959B0135
:10150000AC010A2E06945795479537952795BA95BD
:10151000C9F7620F731F841F951FA01D08955058AF
:10152000BB27AA270E94A70A0C94B30C0E94A50C03
:1015300038F00E94AC0C20F039F49F3F19F426F4E7
:101540000C947B0C0EF4E095E7FB0C94750CE92FE2
:101550000E94C40C58F3BA176207730784079507F3
:1015600020F079F4A6F50C94E60C0EF4E0950B2E21
:10157000BA2FA02D0B01B90190010C01CA01A001E5
:101580001124FF27591B99F0593F50F4503E68F140
:101590001A16F040A22F232F342F4427585FF3CF81
:1015A000469537952795A795F0405395C9F77EF452
:1015B0001F16BA0B620B730B840BBAF09150A1F09B
:1015C000FF0FBB1F661F771F881FC2F70EC0BA0F21
:1015D000621F731F841F48F4879577956795B795A9
:1015E000F7959E3F08F0B0CF9395880F08F09927A4
:1015F000EE0F9795879508950E94A50C60F080E8FE
:1016000091E009F49EEF0E94AC0C28F040E851E014
:1016100071F45EEF0CC00C947B0C0C94E60CE92F7B
:10162000E0780E94C40C40F3092E052AB1F3261776
:1016300037074807590738F00E2E07F8E02569F0FC
:10164000E025E0640AC0EF6307F8009407FADB01C5
:10165000B9019D01DC01CA01AD01EF930E948A0B23
:101660000E94B30C0E943F0B5F91552339F02BED84
:101670003FE049E450FD49EC0C94900A0895DF9353
:10168000DD27B92FBF7740E85FE316161706480736
:101690005B0718F4D92F0E94F20C9F938F937F93CE
:1016A0006F930E94670DE8E6F0E00E947E0C0E94B6
:1016B000B30C2F913F914F915F910E940D0DDD234F
:1016C00051F09058A2EA2AED3FE049EC5FE3D07870
:1016D0005D270E94A70ADF910C94B30C0E94510C65
:1016E00008F481E008950E94870B0C94B30C0E94CB
:1016F000AC0C58F00E94A50C40F029F45F3F29F093
:101700000C94750C51110C94E70C0C947B0C0E94FA
:10171000C40C68F39923B1F3552391F3951B550B32
:10172000BB27AA2762177307840738F09F5F5F4FB4
:10173000220F331F441FAA1FA9F335D00E2E3AF0F3
:10174000E0E832D091505040E695001CCAF72BD00B
:10175000FE2F29D0660F771F881FBB1F261737075C
:101760004807AB07B0E809F0BB0B802DBF01FF278E
:1017700093585F4F3AF09E3F510578F00C94750CEA
:101780000C94E70C5F3FE4F3983ED4F3869577958D
:101790006795B795F7959F5FC9F7880F911D969547
:1017A000879597F90895E1E0660F771F881FBB1FA3
:1017B000621773078407BA0720F0621B730B840B50
:1017C000BA0BEE1F88F7E09508950E94CC0C88F0C4
:1017D0009F5798F0B92F9927B751B0F0E1F0660FF5
:1017E000771F881F991F1AF0BA95C9F714C0B13036
:1017F00091F00E94E60CB1E008950C94E60C672F7E
:10180000782F8827B85F39F0B93FCCF38695779564
:101810006795B395D9F73EF490958095709561954D
:101820007F4F8F4F9F4F0895E89409C097FB3EF478
:1018300090958095709561957F4F8F4F9F4F99231D
:10184000A9F0F92F96E9BB279395F695879577959B
:101850006795B795F111F8CFFAF4BB0F11F460FF5B
:101860001BC06F5F7F4F8F4F9F4F16C0882311F0B3
:1018700096E911C0772321F09EE8872F762F05C0C7
:10188000662371F096E8862F70E060E02AF09A9562
:10189000660F771F881FDAF7880F9695879597F957
:1018A0000895990F0008550FAA0BE0E8FEEF1616F1
:1018B0001706E807F907C0F012161306E407F50744
:1018C00098F0621B730B840B950B39F40A2661F0B8
:1018D000232B242B252B21F408950A2609F4A1405B
:1018E000A6958FEF811D811D089597F99F6780E868
:1018F00070E060E008959FEF80EC0895DF93CF9350
:101900001F930F93FF92EF92DF927B018C016894FB
:1019100006C0DA2EEF010E940D0DFE01E894A5919C
:101920002591359145915591A6F3EF010E94A70AA3
:10193000FE019701A801DA9469F7DF90EF90FF901C
:101940000F911F91CF91DF91089500240A941616EC
:10195000170618060906089500240A94121613069D
:10196000140605060895092E0394000C11F488232B
:1019700052F0BB0F40F4BF2B11F460FF04C06F5F47
:101980007F4F8F4F9F4F089557FD9058440F551F1D
:1019900059F05F3F71F04795880F97FB991F61F0F1
:1019A0009F3F79F087950895121613061406551F68
:1019B000F2CF4695F1DF08C0161617061806991FD4
:1019C000F1CF86957105610508940895E894BB27C9
:1019D00066277727CB0197F908950E94510C08F4E8
:1019E0008FEF08959B01AC0160E070E080E89FE319
:1019F0000C94730B0E940D0D0C94B30C0E94A50C5B
:101A000038F00E94AC0C20F0952311F00C94750C6A
:101A10000C947B0C11240C94E70C0E94C40C70F302
:101A2000959FC1F3950F50E0551F629FF001729F83
:101A3000BB27F00DB11D639FAA27F00DB11DAA1F92
:101A4000649F6627B00DA11D661F829F2227B00DDF
:101A5000A11D621F739FB00DA11D621F839FA00D6A
:101A6000611D221F749F3327A00D611D231F849FBA
:101A7000600D211D822F762F6A2F11249F57504011
:101A80009AF0F1F088234AF0EE0FFF1FBB1F661F8C
:101A9000771F881F91505040A9F79E3F510580F055
:101AA0000C94750C0C94E70C5F3FE4F3983ED4F370
:101AB000869577956795B795F795E7959F5FC1F7F9
:101AC000FE2B880F911D9695879597F908959B0198
:101AD000AC010C94FA0CA0E0B0E0E1E7FDE00C945E
:101AE000E008AE014B5F5F4FFA0161917191AF0168
:101AF00080918A0190918B010E945305E2E00C9441
:061B0000FC08F894FFCF81
:101B0600010000000200000000EB0000000000FFE2
:101B160003FF03FF03FF03FF03FF03860686068614
:101B2600068606860686061C75B8014A01B801D6E1
:101B360001E0018C005E01E600B1001801BE00075D
:101B460000EA10EA10EA10EA10EA10EA10860686A1
:101B560006860686068606860644657669636520D9
:101B660049443D25640A0D0025640A0025660900DE
:041B760025660A00D6
:00000001FF
