:100000000C9434000C9446000C9446000C9446006A
:100010000C9446000C9446000C9446000C94460048
:100020000C9446000C9446000C9446000C94460038
:100030000C9446000C9446000C9446000C94460028
:100040000C9448000C9446000C9446000C94460016
:100050000C9446000C9446000C9446000C94460008
:100060000C9446000C94460011241FBECFEFD8E03C
:10007000DEBFCDBF21E0A0E0B1E001C01D92A43001
:10008000B207E1F70E9466000C94A0000C940000F7
:100090001F920F920FB60F9211248F939F9386B5E4
:1000A0008A5F86BD109203011092020180910001C7
:1000B00090910101019690930101809300019F911D
:1000C0008F910F900FBE0F901F9018951092810086
:1000D00086B3876086BB82E8809380008091810030
:1000E000886180938100109285001092840081EED7
:1000F00094E09093870080938600809181008460D3
:1001000080938100219A86E990E090938900809302
:1001100088002FEF39E648E1215030404040E1F7B8
:1001200000C0000010928900109288002FEF39E67D
:1001300048E1215030404040E1F700C00000E5CFE9
:04014000F894FFCF61
:00000001FF
