:100000000C94CC000C94E9000C94E9000C94E900E9
:100010000C94E9000C94E9000C94E9000C94E900BC
:100020000C94E9000C94E9000C94E9000C94030290
:100030000C94E9000C94E9000C94E9000C94E9009C
:100040000C94E5010C94E9000C94E9000C94E9008F
:100050000C94E9000C94E9000C94E9000C94E9007C
:100060000C94E9000C94E900084AD73B3BCE016EA2
:1000700084BCBFFDC12F3D6C74319ABD56833DDAFF
:100080003D00C77F11BED9E4BB4C3E916BAAAABE0E
:10009000000000803F006E616E00696E66000040E7
:1000A0007A10F35A00A0724E18090010A5D4E80087
:1000B00000E87648170000E40B54020000CA9A3B9F
:1000C000000000E1F5050000809698000000404225
:1000D0000F000000A08601000000102700000000B3
:1000E000E803000000006400000000000A000000B7
:1000F00000000100000000002C76D888DC674F0863
:1001000023DFC1DFAE59E1B1B796E5E3E453C63A68
:10011000E651997696E8E6C28426EB898C9B62EDDF
:10012000407C6FFCEFBC9C9F40F2BAA56FA5F49099
:10013000055A2AF75C936B6CF9676DC11BFCE0E410
:100140000D47FEF520E6B500D0ED902E0300943566
:1001500077050080841E080000204E0A000000C8B9
:100160000C333333330F986E12831141EF8D21140A
:10017000893BE65516CFFEE6DB18D1844B381BF7DA
:100180007C1D901DA4BBE424203284725E22810079
:10019000C9F124ECA1E53D2711241FBECFEFD8E023
:1001A000DEBFCDBF21E0ACE6B1E001C01D92A638B4
:1001B000B207E1F711E0A0E0B1E0EAEFFCE102C034
:1001C00005900D92AC36B107D9F70E944C020C9401
:1001D0007B0E0C9400009091C00095FFFCCF8093A3
:1001E000C60080E090E008958093BB0084E880938F
:1001F000BC008091BC0087FFFCCF8091B900887F54
:100200008033C1F058F48831C9F018F4811114C05A
:1002100011C0803279F0883289F00EC0883451F0F4
:1002200028F4883339F0803449F006C0803531F045
:10023000883511F481E0089582E0089580E0089502
:1002400084E98093BC008091BC0084FDFCCF0895BC
:1002500084EA8093BC008091BC0087FFFCCF809132
:10026000B900887F883021F0803111F081E0089555
:1002700080E008950F931F93CF93DF93D82F8B01C6
:10028000C3E10E942801882341F0CF3F11F0C15003
:10029000F8CF0E942001C1E01DC086EA0E94F40050
:1002A000882331F0CF3F99F70E942001C2E012C0AD
:1002B0008D2F0E94F40081110AC0F80180810E94F4
:1002C000F400C82F811105C00E94200103C0C3E0C3
:1002D00001C0C4E08C2FDF91CF911F910F91089541
:1002E000FF920F931F93CF93DF93882309F448C0A5
:1002F0008A01F62ED82FC3E10E942801882329F015
:10030000CC2309F43FC0C150F7CF86EA0E94F40025
:10031000882331F0C111F7CF0E942001C2E039C01B
:100320008F2D0E94F40081112FC00E94280181119D
:100330002DC087EA0E94F400C82F811129C0F8015E
:100340008D2F94EC813059F09093BC002091BC002B
:1003500027FFFCCF2091BB0021938150F3CFD150D8
:10036000F801ED0FF11D84E88093BC008091BC0082
:1003700087FFFCCF8091BB0080830E94200109C0D1
:10038000C0E007C0C1E005C0C3E003C0C4E001C0D5
:10039000C5E08C2FDF91CF911F910F91FF900895B1
:1003A00090917C00907F8F70892B80937C0080914E
:1003B0007A00806480937A0080917A0086FDFCCF79
:1003C000809178009091790008951F920F920FB656
:1003D0000F9211248F939F9386B58A5F86BD1092EA
:1003E0007F0110927E0180917C0190917D010196A8
:1003F00090937D0180937C019F918F910F900FBE10
:100400000F901F9018951F920F920FB60F92112404
:100410002F938F939F93EF93FF93809100018630EA
:10042000E0F42091000181E090E001C0880F2A955E
:10043000EAF785B9E0910001F0E0EE0FFF1FE55EFD
:10044000FE4F8081918190938900809388008091F4
:1004500000018F5F8093000115C0809100018630FC
:1004600089F4E0910001F0E0EE0FFF1FE55EFE4F22
:10047000808191819093890080938800109200017F
:1004800085B115B8FF91EF919F918F912F910F90AA
:100490000FBE0F901F901895CF93DF93CDB7DEB7A7
:1004A000C859D1090FB6F894DEBF0FBECDBF84B1D5
:1004B0001FEF14B91092810086B3876086BB8091CC
:1004C00081008860809381001092850010928400E2
:1004D00080911B0190911C0190938900809388006A
:1004E00080916F00826080936F00809181008260B4
:1004F0008093810081E085B9789480917C0080644C
:1005000080937C0080917A00876080937A0080914C
:100510007A00806880937A0080917E0010937E003C
:1005200020E130E03093C5002093C40098E190931F
:10053000C1008EE08093C2003093C5002093C400B8
:100540009093C1008093C20081E091E09093830179
:100550008093820187B18F7C87B988B18F7C88B9FD
:100560001092B90088E48093B80084E08093BC00C6
:100570008AE0ED968FAFED9708E0EC960FAFEC9721
:100580001E0129E7220E311CF1011082AE014F5FDE
:100590005F4F60E081E00E94700189811F928F931C
:1005A00089E591E09F938F930E94650EB1018DE2E2
:1005B0000E943A01BE0164587F4F8CE20E943A01CA
:1005C000BE0165587F4F81E30E943A01F10100832B
:1005D000B1018DE20E943A01FFEF29EF30E0F150C6
:1005E00020403040E1F700C000008CEFEE968FAF66
:1005F000EE971F938F9308E611E01F930F930E94CD
:10060000650EBE0163587F4F8EE10E943A0185E07E
:10061000EF968FAFEF971F928F931F930F930E94C8
:10062000650EBE0162587F4F8FE10E943A010FB6FE
:10063000F894DEBF0FBECDBFE0E7F1E0C158DF4F59
:10064000F983E883CF57D0408E010F5F1F4F2DE411
:1006500031E0CD56DF4F39832883C359D04081E440
:1006600091E0CF56DF4F99838883C159D040E5E3AD
:10067000F1E0C157DF4FF983E883CF58D04029E23A
:1006800031E0C357DF4F39832883CD58D040CF574F
:10069000DF4F19821882C158D040C557DF4F1982E9
:1006A0001882CB58D040CB57DF4F19821882C558DB
:1006B000D040CF57DF4F5880C158D04036E0531656
:1006C00009F480C2CD56DF4FE881F981C359D0408B
:1006D000E080F180C157DF4FE881F981CF58D040E9
:1006E00060807180C357DF4FE881F981CD58D040D9
:1006F0000190F081E02DCD57DF4FF983E883C35897
:10070000D040CF56DF4FE881F981C159D040808178
:100710009181B701681B790B072E000C880B990B90
:100720000E94100D4B015C01B301CD57DF4F2881B2
:100730003981C358D040621B730B072E000C880B05
:10074000990B0E94100D9B01AC01C501B4010E94E0
:100750006D0CC957DF4F688379838A839B83C758A1
:10076000D040B301072C000C880B990B0E94100D90
:100770004B015C01B701FF0C880B990B0E94100D17
:100780006B017C01A5019401C957DF4F6881798114
:100790008A819B81C758D0400E94F40D9B01AC0117
:1007A000C701B6010E94890BCB56DF4F688379835E
:1007B0008A839B83C559D04035E0531609F4A2C003
:1007C000E12CF12C84E0581202C086E001C0852D96
:1007D0000E94D0016801CE0CDF1CBC0180E090E0DB
:1007E0000E940E0DF6016083718382839383F4E08F
:1007F000EF0EF11C24E1E216F10421F7F801608507
:100800007185828593850E94DF0CAB01CD57DF4F48
:1008100028813981C358D04026173707D0F0661594
:100820007705F0F09B01CB57DF4FE881F981C55880
:10083000D0402E1B3F0B2C3FFFEF3F079CF0253095
:10084000310584F4CB57DF4F48815981C558D040DA
:100850000FC0CD57DF4F48815981C358D04008C0E1
:10086000A30106C0CB57DF4F79836883C558D040BA
:10087000BA0180E090E00E940E0DC957DF4F288139
:1008800039814A815B81C758D0400E94F40DCB5614
:10089000DF4F288139814A815B81C559D0400E9450
:1008A0008A0B0E94DF0C80E090E00E940E0D2FE882
:1008B00032EC45E75DE30E94F40D6B017C01C15809
:1008C000DF4FE881F981CF57D0406081718180E0AE
:1008D00090E00E940E0D27ED33EA40E75FE30E94AF
:1008E000F40D9B01AC01C701B6010E948A0B0E9466
:1008F000DF0CC158DF4FE881F981CF57D0407183B9
:10090000608337C1412C512CA10162E382E00E9437
:100910007001A10164E382E00E947001EB966FAC6C
:10092000EB97712C762C6624EA968FADEA97680EC9
:10093000711CA10166E382E00E947001EB966FAD2D
:10094000EB9770E0762F6627EA968FADEA97680FEF
:10095000711D072E000C880B990B0E94100D20E0D2
:1009600030E040E85BE30E94F40D6B017C01B301D1
:10097000770C880B990B0E94100D20E030E040E8C6
:100980005BE30E94F40DA70196010E94090C780117
:10099000E40CF51C20E030E044E353E40E94F40D45
:1009A0002BED3FE049E450E40E946D0CF7016083B9
:1009B000718382839383F4E04F0E511C24E142162D
:1009C000510409F0A1CFF801C084D184E284F384FA
:1009D00020E030E0A901C701B6010E94680C87FF42
:1009E0000AC020E030E044EB53E4C701B6010E94A6
:1009F0008A0B6B017C01CD57DF4F28813981C358A9
:100A0000D040B901330F880B990B0E94100D2B01B8
:100A10003C01A70196010E94680C87FF15C020E0E9
:100A200030E046E953E4C701B6010E94680C87FF35
:100A30000BC040926C0150926D0160926E017092F9
:100A40006F015301420143C0A7019601C501B401E2
:100A50000E94E70D181654F020E030E046E953E418
:100A6000C701B6010E94E70D87FD09C080926C01A5
:100A700090926D01A0926E01B0926F0128C02091FA
:100A80006C0130916D0140916E0150916F01C70171
:100A9000B6010E94890B9F7720E030E040E85FE3D9
:100AA0000E94680C87FF09C080906C0190906D01D6
:100AB000A0906E01B0906F010AC0C0926C01D092FC
:100AC0006D01E0926E01F0926F0146015701A501A0
:100AD0009401C957DF4F688179818A819B81C7580A
:100AE000D0400E94F40DCB56DF4F288139814A81D6
:100AF0005B81C559D0400E948A0B0E94DF0C80E0C8
:100B000090E00E940E0D2DEC3CEC4CE45FE30E9463
:100B1000F40D6B017C01C158DF4FE881F981CF579B
:100B2000D0406081718180E090E00E940E0D2DEC3C
:100B30003CEC4CE45EE30E94F40D9B01AC01C70168
:100B4000B6010E948A0B0E94DF0CC158DF4FE8817A
:100B5000F981CF57D040608371837F936F9328E6EC
:100B600031E03F932F930E94650E0F900F900F90EE
:100B70000F90C158DF4FE881F981CF57D0402081D5
:100B80003181C557DF4F88819981CB58D040820F82
:100B9000931FC557DF4F99838883CB58D040CF57D9
:100BA000DF4F88819981C158D040880F991FFC017F
:100BB000E55EFE4F31832083FC01E15FFE4F318310
:100BC00020830EC080E49CE9C557DF4FE881F9819E
:100BD000CB58D0408E1B9F0B909328018093270108
:100BE000CF57DF4F28813981C158D0402F5F3F4F09
:100BF000CF57DF4F39832883C158D040C158DF4FCA
:100C000088819981CF57D0400296C158DF4F998390
:100C10008883CF57D0400C5E1F4FCD56DF4FE88101
:100C2000F981C359D0403296CD56DF4FF983E8831E
:100C3000C359D040CF56DF4F28813981C159D040A8
:100C40002E5F3F4FCF56DF4F39832883C159D040A5
:100C5000C157DF4F88819981CF58D0400296C15744
:100C6000DF4F99838883CF58D040C357DF4FE88147
:100C7000F981CD58D0403296C357DF4FF983E883CE
:100C8000CD58D040CF57DF4F28813981C158D0404F
:100C90002730310509F00DCDCFCCA0E1B0E0E3E580
:100CA000F6E00C94CA097C011B016A01FC01178261
:100CB0001682838181FF44C39E012F5F3F4F39011C
:100CC000F7019381F10193FD859193FF81911F01BC
:100CD000882309F431C3853239F493FD859193FF5C
:100CE00081911F01853239F4B70190E00E94EF0A2B
:100CF00056016501E5CF10E0512C912CFFE1F9156B
:100D0000D8F08B3279F038F4803279F08332A1F464
:100D1000F92DF0612EC08D3261F0803369F4292DF8
:100D200021602DC0392D3260932E892D8460982E3C
:100D30002AC0E92DE86015C097FC2DC020ED280FD2
:100D40002A3088F496FE06C03AE0139F200D112445
:100D5000122F19C08AE0589E200D1124522EE92D21
:100D6000E0629E2E10C08E3231F496FCE5C2F92D61
:100D7000F0649F2E08C08C3621F4292D2068922E15
:100D800002C0883641F4F10193FD859193FF819172
:100D90001F018111B3CF9BEB980F933020F4992D55
:100DA0009061805E07C09BE9980F933008F066C1A0
:100DB000992D9F7E96FF16E09F73992E853619F424
:100DC0009064992E08C0863621F4392F3068932E0E
:100DD00002C01111115097FE07C01C3350F4442477
:100DE0004394410E27E00BC0183038F027E017E09D
:100DF00005C027E09CE3492E02C0212F412C56015B
:100E000084E0A80EB11CF60160817181828193811A
:100E1000042DA3010E94010A6C01F981FC87F0FFF7
:100E200002C0F3FF06C091FC06C092FE06C000E2BD
:100E300005C00DE203C00BE201C000E08C858C70A0
:100E400019F001115AC29BC297FE10C04C0CFC85D0
:100E5000F4FF04C08A81813309F44A94141474F5B0
:100E600028E0241578F588E0482E2CC096FC2AC08E
:100E7000812F90E08C159D059CF03CEFC3163FEF51
:100E8000D30674F0892D8068982E0AC0E2E0F0E065
:100E9000EC0FFD1FE10FF11D8081803319F411501B
:100EA0001111F4CF97FE0EC044244394410E812FBC
:100EB00090E0C816D9062CF41C1904C044244394AD
:100EC00001C010E097FE06C01C141D0434F4C601D6
:100ED000019605C085E090E002C081E090E001113C
:100EE0000196112331F0212F30E02F5F3F4F820F09
:100EF000931F252D30E08217930714F4581A01C070
:100F0000512C892D897049F4552039F0B70180E2C0
:100F100090E00E94EF0A5A94F7CF002329F0B7011E
:100F2000802F90E00E94EF0A93FC09C0552039F011
:100F3000B70180E390E00E94EF0A5A94F7CF97FE42
:100F40004CC04601D7FE02C0812C912CC6018819E5
:100F50009909F301E80FF91FFE87ED87960124191F
:100F60003109388B2F87012F10E011950195110958
:100F70003FEF8316930629F4B7018EE290E00E94BA
:100F8000EF0AC814D9044CF08F8598898815990503
:100F900024F4ED85FE85818101C080E3F1E08F1AA4
:100FA00091082D853E852F5F3F4F3E872D87801608
:100FB00091062CF0B70190E00E94EF0AD9CFC81437
:100FC000D90441F49A81963320F4953319F43C8581
:100FD00034FF81E3B70190E04EC08A81813319F07C
:100FE0009C859F7E9C87B70190E00E94EF0A1111BB
:100FF00005C094FC18C085E690E017C0B7018EE2EA
:1010000090E00E94EF0A1E5F82E001E0080FF3010A
:10101000E80FF11D8081B70190E00E94EF0A802F58
:101020000113F3CFE6CF85E490E0B7010E94EF0A09
:10103000D7FC06C0C114D10441F4EC85E4FF05C01F
:10104000D194C194D1088DE201C08BE2B70190E048
:101050000E94EF0A80E32AE0C216D1042CF08F5FD1
:10106000FAE0CF1AD108F7CFB70190E00E94EF0A5B
:10107000B701C601C0960E94EF0A54C1833631F011
:10108000833779F0833509F056C020C0560132E02D
:10109000A30EB11CF6018081898301E010E0630199
:1010A00012C05601F2E0AF0EB11CF601C080D18033
:1010B00096FE03C0612F70E002C06FEF7FEFC601A4
:1010C0000E94E40A8C01F92DFF7714C0560122E03A
:1010D000A20EB11CF601C080D18096FE03C0612F24
:1010E00070E002C06FEF7FEFC6010E94D90A8C0149
:1010F000F92DF0689F2EF3FD1AC0852D90E008179A
:101100001907A8F4B70180E290E00E94EF0A5A9410
:10111000F4CFF60197FC859197FE81916F01B7019D
:1011200090E00E94EF0A51105A94015011090115E4
:10113000110579F7F7C0843611F0893661F556014B
:1011400097FE09C024E0A20EB11CF60160817181F6
:10115000828193810AC0F2E0AF0EB11CF60160817A
:101160007181072E000C880B990BF92DFF769F2EAD
:1011700097FF09C090958095709561957F4F8F4F2F
:101180009F4FF0689F2E2AE030E0A3010E942B0BB6
:10119000C82EC6183FC0092D853721F40F7E2AE0DE
:1011A00030E01DC0097F8F3691F018F4883559F072
:1011B000C3C0803719F0883711F0BEC0006104FF4A
:1011C00009C0046007C094FE08C0066006C028E09D
:1011D00030E005C020E130E002C020E132E05601FD
:1011E00007FF09C084E0A80EB11CF601608171817F
:1011F0008281938108C0F2E0AF0EB11CF6016081DC
:10120000718180E090E0A3010E942B0BC82EC618CC
:101210000F77902E96FE0BC0092D0E7FC11650F44D
:1012200094FE0AC092FC08C0092D0E7E05C0DC2C7D
:10123000092D03C0DC2C01C0D12E04FF0DC0FE011E
:10124000EC0DF11D8081803311F4097E09C002FF8D
:1012500006C0D394D39404C0802F867809F0D39429
:1012600003FD11C000FF06C01C2DD51480F4150D20
:101270001D190DC0D51458F4B70180E290E00E940A
:10128000EF0AD394F7CFD51410F45D1801C0512C98
:1012900004FF10C0B70180E390E00E94EF0A02FF54
:1012A00017C001FD03C088E790E002C088E590E028
:1012B000B7010CC0802F867859F001FF02C08BE285
:1012C00001C080E207FD8DE2B70190E00E94EF0AC5
:1012D000C11638F4B70180E390E00E94EF0A115084
:1012E000F7CFCA94F301EC0DF11D8081B70190E0B6
:1012F0000E94EF0AC110F5CF15C0F4E0F51560F5B6
:1013000084E0581A93FE1FC0011127C02C8523FFCB
:101310002AC006E910E0392D3071932EF80184912E
:10132000811124C0552009F4E4CCB70180E290E09B
:101330000E94EF0A5A94F6CFF7018681978126C062
:101340008FEF9FEF23C0B70180E290E00E94EF0A89
:101350005A945110F8CFD8CF512CB701802F90E07C
:101360000E94EF0AD3CF0AE910E0D5CF9110805246
:10137000B70190E00E94EF0A0F5F1F4FCFCF23E02D
:10138000251510F483E0BDCF512CC0CF6096E2E16B
:101390000C94E6092F923F924F925F926F927F9248
:1013A0008F929F92AF92BF92CF92DF92EF92FF9275
:1013B0000F931F93CF93DF93CDB7DEB7CA1BDB0B21
:1013C0000FB6F894DEBF0FBECDBF09942A883988C6
:1013D00048885F846E847D848C849B84AA84B984CD
:1013E000C884DF80EE80FD800C811B81AA81B981D9
:1013F000CE0FD11D0FB6F894DEBF0FBECDBFED01ED
:101400000895283008F027E03327DA01990F311DBD
:1014100087FD916000966105710539F432602E5F99
:101420003D9330E32A95E1F708959F3F30F08038EF
:101430007105610509F03C5F3C5F3D93913008F018
:101440008068911DDF93CF931F930F93FF92EF92CC
:10145000192F987F9695E92F96959695E90FFF2776
:10146000E850FF4F99273327EE24FF24A701E70117
:1014700005900894079428F4360FE71EF81E491FBC
:10148000511D660F771F881F991F0694A1F70590BD
:10149000079428F4E70EF81E491F561FC11D770F49
:1014A000881F991F661F0694A1F70590079428F4DA
:1014B000F80E491F561FC71FD11D880F991F661FA1
:1014C000771F0694A1F70590079420F4490F561F43
:1014D000C71FD81F990F661F771F881F0694A9F78B
:1014E00084911095177041F0D695C79557954795FB
:1014F000F794E7941A95C1F7EEE9F0E06894159037
:10150000159135916591959105907FE27395E1185C
:10151000F10A430B560BC90BD009C0F7E10CF11EC1
:10152000431F561FC91FD01D7EF4703311F48A95D6
:10153000E6CFE894015030F0080F0AF400270217B4
:1015400008F4202F2395022F7A3328F079E37D9336
:101550002A95E9F710C07D932A9589F60694979508
:101560006795379517951794E118F10A430B560BB9
:10157000C90BD00998F023957E9173957A3308F0C2
:1015800070E37C932013B8F77E9170617D9330F007
:10159000839571E37D9370E32A95E1F71124EF9031
:1015A000FF900F911F91CF91DF91992787FD909523
:1015B0000895FC010590615070400110D8F78095A6
:1015C00090958E0F9F1F0895FC016150704001900F
:1015D0000110D8F7809590958E0F9F1F08950F9357
:1015E0001F93CF93DF93FB01238121FD03C08FEF76
:1015F0009FEF2CC022FF16C0468157812481358180
:101600004217530744F4A081B1819D012F5F3F4FE2
:10161000318320838C93268137812F5F3F4F37831F
:10162000268314C08B01EC01FB010084F185E02DC1
:101630000995892BE1F6D80116968D919C91179703
:10164000019617969C938E931697CE01DF91CF91BA
:101650001F910F910895FA01AA27283051F12031E6
:1016600081F1E8946F936E7F6E5F7F4F8F4F9F4F36
:10167000AF4FB1E03ED0B4E03CD0670F781F891F78
:101680009A1FA11D680F791F8A1F911DA11D6A0F46
:10169000711D811D911DA11D20D009F468943F91F9
:1016A0002AE0269F11243019305D3193DEF6CF01F8
:1016B0000895462F4770405D4193B3E00FD0C9F7BE
:1016C000F6CF462F4F70405D4A3318F0495D31FD2B
:1016D0004052419302D0A9F7EACFB4E0A69597957E
:1016E000879577956795BA95C9F700976105710554
:1016F00008959B01AC010A2E06945795479537959E
:101700002795BA95C9F7620F731F841F951FA01DF7
:1017100008955058BB27AA270E94A10B0C94AD0D29
:101720000E949F0D38F00E94A60D20F039F49F3FD3
:1017300019F426F40C94750D0EF4E095E7FB0C9467
:101740006F0DE92F0E94BE0D58F3BA176207730799
:101750008407950720F079F4A6F50C94E00D0EF4BB
:10176000E0950B2EBA2FA02D0B01B90190010C01B1
:10177000CA01A0011124FF27591B99F0593F50F4C9
:10178000503E68F11A16F040A22F232F342F442721
:10179000585FF3CF469537952795A795F040539519
:1017A000C9F77EF41F16BA0B620B730B840BBAF0E9
:1017B0009150A1F0FF0FBB1F661F771F881FC2F754
:1017C0000EC0BA0F621F731F841F48F48795779568
:1017D0006795B795F7959E3F08F0B0CF9395880F22
:1017E00008F09927EE0F9795879508950E949F0D11
:1017F00060F080E891E009F49EEF0E94A60D28F0C9
:1018000040E851E071F45EEF0CC00C94750D0C943F
:10181000E00DE92FE0780E94BE0D40F3092E052A65
:10182000B1F3261737074807590738F00E2E07F887
:10183000E02569F0E025E0640AC0EF6307F8009452
:1018400007FADB01B9019D01DC01CA01AD01EF938B
:101850000E94840C0E94AD0D0E94390C5F915523AB
:1018600039F02BED3FE049E450FD49EC0C948A0B34
:101870000895DF93DD27B92FBF7740E85FE31616A1
:10188000170648075B0718F4D92F0E94EC0D9F93A9
:101890008F937F936F930E94610EE8E6F0E00E94C1
:1018A000780D0E94AD0D2F913F914F915F910E9455
:1018B000070EDD2351F09058A2EA2AED3FE049ECF3
:1018C0005FE3D0785D270E94A10BDF910C94AD0DF2
:1018D0000E944B0D08F481E008950E94810C0C9445
:1018E000AD0D0E94A60D58F00E949F0D40F029F406
:1018F0005F3F29F00C946F0D51110C94E10D0C9485
:10190000750D0E94BE0D68F39923B1F3552391F331
:10191000951B550BBB27AA2762177307840738F05E
:101920009F5F5F4F220F331F441FAA1FA9F335D0BB
:101930000E2E3AF0E0E832D091505040E695001C6F
:10194000CAF72BD0FE2F29D0660F771F881FBB1F29
:10195000261737074807AB07B0E809F0BB0B802D07
:10196000BF01FF2793585F4F3AF09E3F510578F033
:101970000C946F0D0C94E10D5F3FE4F3983ED4F3AB
:10198000869577956795B795F7959F5FC9F7880F07
:10199000911D9695879597F90895E1E0660F771F59
:1019A000881FBB1F621773078407BA0720F0621BEA
:1019B000730B840BBA0BEE1F88F7E09508950E9415
:1019C000C60D88F09F5798F0B92F9927B751B0F0FE
:1019D000E1F0660F771F881F991F1AF0BA95C9F7B3
:1019E00014C0B13091F00E94E00DB1E008950C9464
:1019F000E00D672F782F8827B85F39F0B93FCCF317
:101A0000869577956795B395D9F73EF4909580952F
:101A1000709561957F4F8F4F9F4F0895E89409C04F
:101A200097FB3EF490958095709561957F4F8F4F11
:101A30009F4F9923A9F0F92F96E9BB279395F69527
:101A4000879577956795B795F111F8CFFAF4BB0FA5
:101A500011F460FF1BC06F5F7F4F8F4F9F4F16C009
:101A6000882311F096E911C0772321F09EE8872F93
:101A7000762F05C0662371F096E8862F70E060E04F
:101A80002AF09A95660F771F881FDAF7880F9695C8
:101A9000879597F90895990F0008550FAA0BE0E86C
:101AA000FEEF16161706E807F907C0F01216130620
:101AB000E407F50798F0621B730B840B950B39F460
:101AC0000A2661F0232B242B252B21F408950A26C6
:101AD00009F4A140A6958FEF811D811D089597F906
:101AE0009F6780E870E060E008959FEF80EC0895C4
:101AF000DF93CF931F930F93FF92EF92DF927B01BF
:101B00008C01689406C0DA2EEF010E94070EFE01D8
:101B1000E894A5912591359145915591A6F3EF0152
:101B20000E94A10BFE019701A801DA9469F7DF90EA
:101B3000EF90FF900F911F91CF91DF9108950024B6
:101B40000A941616170618060906089500240A9422
:101B500012161306140605060895092E0394000CA8
:101B600011F4882352F0BB0F40F4BF2B11F460FF37
:101B700004C06F5F7F4F8F4F9F4F089557FD905860
:101B8000440F551F59F05F3F71F04795880F97FB41
:101B9000991F61F09F3F79F08795089512161306FB
:101BA0001406551FF2CF4695F1DF08C0161617062A
:101BB0001806991FF1CF869571056105089408955F
:101BC000E894BB2766277727CB0197F908950E94F1
:101BD0004B0D08F48FEF08959B01AC0160E070E0BD
:101BE00080E89FE30C946D0C0E94070E0C94AD0DE1
:101BF0000E949F0D38F00E94A60D20F0952311F051
:101C00000C946F0D0C94750D11240C94E10D0E9431
:101C1000BE0D70F3959FC1F3950F50E0551F629F65
:101C2000F001729FBB27F00DB11D639FAA27F00D35
:101C3000B11DAA1F649F6627B00DA11D661F829F5C
:101C40002227B00DA11D621F739FB00DA11D621F41
:101C5000839FA00D611D221F749F3327A00D611D5E
:101C6000231F849F600D211D822F762F6A2F112440
:101C70009F5750409AF0F1F088234AF0EE0FFF1F73
:101C8000BB1F661F771F881F91505040A9F79E3FCA
:101C9000510580F00C946F0D0C94E10D5F3FE4F35F
:101CA000983ED4F3869577956795B795F795E79520
:101CB0009F5FC1F7FE2B880F911D9695879597F929
:101CC00008959B01AC010C94F40DA0E0B0E0EBE6AC
:101CD000FEE00C94DA09AE014B5F5F4FFA016191AF
:101CE0007191AF0180918201909183010E944D0614
:0A1CF000E2E00C94F609F894FFCF2F
:101CFA00010000000200000000EB0000000000FFED
:101D0A0003FF03FF03FF03FF03FF0386068606861E
:101D1A00068606860686061C75B8014A01B801D6EB
:101D2A0001E0018C005E01E600B1001801BE000767
:101D3A0000EA10EA10EA10EA10EA10C012860686D3
:101D4A00068606860686064004446576696365202B
:0C1D5A0049443D25640A0D0025640A0080
:00000001FF
