:100000000C94CC000C94E9000C94E9000C94E900E9
:100010000C94E9000C94E9000C94E9000C94E900BC
:100020000C94E9000C94E9000C94E9000C94030290
:100030000C94E9000C94E9000C94E9000C94E9009C
:100040000C94E5010C94E9000C94E9000C94E9008F
:100050000C94E9000C94E9000C94E9000C94E9007C
:100060000C94E9000C94E900084AD73B3BCE016EA2
:1000700084BCBFFDC12F3D6C74319ABD56833DDAFF
:100080003D00C77F11BED9E4BB4C3E916BAAAABE0E
:10009000000000803F006E616E00696E66000040E7
:1000A0007A10F35A00A0724E18090010A5D4E80087
:1000B00000E87648170000E40B54020000CA9A3B9F
:1000C000000000E1F5050000809698000000404225
:1000D0000F000000A08601000000102700000000B3
:1000E000E803000000006400000000000A000000B7
:1000F00000000100000000002C76D888DC674F0863
:1001000023DFC1DFAE59E1B1B796E5E3E453C63A68
:10011000E651997696E8E6C28426EB898C9B62EDDF
:10012000407C6FFCEFBC9C9F40F2BAA56FA5F49099
:10013000055A2AF75C936B6CF9676DC11BFCE0E410
:100140000D47FEF520E6B500D0ED902E0300943566
:1001500077050080841E080000204E0A000000C8B9
:100160000C333333330F986E12831141EF8D21140A
:10017000893BE65516CFFEE6DB18D1844B381BF7DA
:100180007C1D901DA4BBE424203284725E22810079
:10019000C9F124ECA1E53D2711241FBECFEFD8E023
:1001A000DEBFCDBF21E0ACE6B1E001C01D92A737B4
:1001B000B207E1F711E0A0E0B1E0E2E2F8E102C04D
:1001C00005900D92AC36B107D9F70E944C020C9401
:1001D0000F0C0C9400009091C00095FFFCCF809311
:1001E000C60080E090E0089590917C00907F8F7031
:1001F000892B80937C0080917A00806480937A00C0
:1002000080917A0086FDFCCF8091780090917900F2
:1002100008958093BB0084E88093BC008091BC006B
:1002200087FFFCCF8091B900887F8033C1F058F4FC
:100230008831C9F018F4811114C011C0803279F0EE
:10024000883289F00EC0883451F028F4883339F0B0
:10025000803449F006C0803531F0883511F481E0F2
:10026000089582E0089580E0089584E98093BC00B9
:100270008091BC0084FDFCCF089584EA8093BC008B
:100280008091BC0087FFFCCF8091B900887F8830C7
:1002900021F0803111F081E0089580E008950F93FE
:1002A0001F93CF93DF93D82F8B01C3E10E943D01B1
:1002B000882341F0CF3F11F0C150F8CF0E943501A3
:1002C000C1E01DC086EA0E940901882331F0CF3FBA
:1002D00099F70E943501C2E012C08D2F0E940901DA
:1002E00081110AC0F80180810E940901C82F811183
:1002F00005C00E94350103C0C3E001C0C4E08C2FDB
:10030000DF91CF911F910F910895FF920F931F934B
:10031000CF93DF93882309F448C08A01F62ED82FA3
:10032000C3E10E943D01882329F0CC2309F43FC09A
:10033000C150F7CF86EA0E940901882331F0C1112C
:10034000F7CF0E943501C2E039C08F2D0E9409010C
:1003500081112FC00E943D0181112DC087EA0E94AA
:100360000901C82F811129C0F8018D2F94EC81302B
:1003700059F09093BC002091BC0027FFFCCF209146
:10038000BB0021938150F3CFD150F801ED0FF11D47
:1003900084E88093BC008091BC0087FFFCCF8091F3
:1003A000BB0080830E94350109C0C0E007C0C1E0E6
:1003B00005C0C3E003C0C4E001C0C5E08C2FDF91DD
:1003C000CF911F910F91FF9008951F920F920FB63A
:1003D0000F9211248F939F9386B58A5F86BD1092EA
:1003E000700110926F0180916D0190916E010196E4
:1003F00090936E0180936D019F918F910F900FBE2E
:100400000F901F9018951F920F920FB60F92112404
:100410002F938F939F93EF93FF93809100018630EA
:10042000E0F42091000181E090E001C0880F2A955E
:10043000EAF785B9E0910001F0E0EE0FFF1FE15F00
:10044000FE4F8081918190938900809388008091F4
:1004500000018F5F8093000115C0809100018630FC
:1004600089F4E0910001F0E0EE0FFF1FE15FFE4F25
:10047000808191819093890080938800109200017F
:1004800085B115B8FF91EF919F918F912F910F90AA
:100490000FBE0F901F901895CF93DF93CDB7DEB7A7
:1004A0002F970FB6F894DEBF0FBECDBF84B11FEFFC
:1004B00014B91092810086B3876086BB8091810059
:1004C0008860809381001092850010928400809152
:1004D0000F01909110019093890080938800809182
:1004E0006F00826080936F008091810082608093B2
:1004F000810081E085B9789480917C00806480934C
:100500007C0080917A00876080937A0080917A00E5
:10051000806880937A0080917E0010937E0020E1B5
:1005200030E03093C5002093C40098E19093C1005F
:100530008EE08093C2003093C5002093C400909356
:10054000C1008093C20081E091E090937401809398
:10055000730187B18F7C87B988B18F7C88B910927D
:10056000B90088E48093B80084E08093BC008AE0FE
:100570008C8308E00B8319824CE651E060E081E057
:100580000E94850180916C011F928F9389E591E013
:100590009F938F930E94F90BBE016F5F7F4F8DE297
:1005A0000E944F01BE016C5F7F4F8CE20E944F01A1
:1005B000BE016D5F7F4F81E30E944F010983BE0141
:1005C0006F5F7F4F8DE20E944F012FEF89EF90E028
:1005D000215080409040E1F700C000008CEF8D83F7
:1005E0001F938F9308E611E01F930F930E94F90B5E
:1005F000BE016B5F7F4F8EE10E944F0185E08E83CD
:100600001F928F931F930F930E94F90BBE016A5F95
:100610007F4F8FE10E944F010FB6F894DEBF0FBEEF
:10062000CDBF3DE4232E31E0332E81E491E09E875F
:100630008D87E5E3F1E0FC87EB8749E2A42E41E0FA
:10064000B42E00E010E01F860F83063009F4C7C007
:10065000F101C080D180EB85FC8580809180ED85A3
:10066000FE8580819181B601681B790B80E090E066
:100670000E94CB0A2B013C01F50180819181B401DC
:10068000681B790B80E090E00E94CB0A9B01AC01D3
:10069000C301B2010E942A0A2B013C01B60180E08D
:1006A00090E00E94CB0A6B017C01B40180E090E0F5
:1006B0000E94CB0AA30192010E94880B9B01AC010E
:1006C000C701B6010E944B096B017C01053069F03E
:1006D000043011F486E001C0802F0E94F400BC01B8
:1006E00080E090E00E94CB0A51C0AE014F5F5F4FA7
:1006F00062E382E00E948501AE014F5F5F4F64E3D9
:1007000082E00E9485018A80912C982C882489811E
:10071000880E911CAE014F5F5F4F66E382E00E943E
:1007200085016A8170E0762F66278981680F711DC7
:10073000072E000C880B990B0E94CD0A20E030E0B8
:1007400040E85BE30E94880B6F83788789879A87EC
:10075000B401990C880B990B0E94CD0A20E030E07F
:1007600040E85BE30E94880B2F81388549855A85D4
:100770000E94CB0920E030E044E353E40E94880B60
:100780002BED3FE049E450E40E942A0AA3019201C4
:100790000E94880BA70196010E944C090E949C0AA6
:1007A0009801220F331FF901E35EFE4F8081918192
:1007B000861B970B97FF03C09195819591094F97E1
:1007C000BCF08F85860F8F87F901E15FFE4F718343
:1007D0006083F901E35EFE4F7183608309C080E4AA
:1007E0009CE9EF858E1B910990931C0180931B015E
:1007F0000F5F1F4FF2E02F0E311C8D859E850296F4
:100800009E878D87EB85FC853296FC87EB87F2E02F
:10081000AF0EB11C0730110509F016CF02CFA0E1D1
:10082000B0E0E5E1F4E00C948C077C011B016A0167
:10083000FC0117821682838181FF44C39E012F5FD2
:100840003F4F3901F7019381F10193FD859193FFAA
:1008500081911F01882309F431C3853239F493FD56
:10086000859193FF81911F01853239F4B70190E0A2
:100870000E94B10856016501E5CF10E0512C912C82
:10088000FFE1F915D8F08B3279F038F4803279F045
:100890008332A1F4F92DF0612EC08D3261F08033E6
:1008A00069F4292D21602DC0392D3260932E892DB8
:1008B0008460982E2AC0E92DE86015C097FC2DC0F1
:1008C00020ED280F2A3088F496FE06C03AE0139FE8
:1008D000200D1124122F19C08AE0589E200D1124DA
:1008E000522EE92DE0629E2E10C08E3231F496FC1D
:1008F000E5C2F92DF0649F2E08C08C3621F4292D15
:100900002068922E02C0883641F4F10193FD859152
:1009100093FF81911F018111B3CF9BEB980F93300F
:1009200020F4992D9061805E07C09BE9980F933069
:1009300008F066C1992D9F7E96FF16E09F73992E51
:10094000853619F49064992E08C0863621F4392F23
:100950003068932E02C01111115097FE07C01C334E
:1009600050F444244394410E27E00BC0183038F073
:1009700027E017E005C027E09CE3492E02C0212FA5
:10098000412C560184E0A80EB11CF60160817181F2
:1009900082819381042DA3010E94C3076C01F98118
:1009A000FC87F0FF02C0F3FF06C091FC06C092FE78
:1009B00006C000E205C00DE203C00BE201C000E08A
:1009C0008C858C7019F001115AC29BC297FE10C021
:1009D0004C0CFC85F4FF04C08A81813309F44A94ED
:1009E000141474F528E0241578F588E0482E2CC0FE
:1009F00096FC2AC0812F90E08C159D059CF03CEF61
:100A0000C3163FEFD30674F0892D8068982E0AC074
:100A1000E2E0F0E0EC0FFD1FE10FF11D808180337B
:100A200019F411501111F4CF97FE0EC044244394D1
:100A3000410E812F90E0C816D9062CF41C1904C071
:100A40004424439401C010E097FE06C01C141D040A
:100A500034F4C601019605C085E090E002C081E053
:100A600090E001110196112331F0212F30E02F5F2A
:100A70003F4F820F931F252D30E08217930714F408
:100A8000581A01C0512C892D897049F4552039F02C
:100A9000B70180E290E00E94B1085A94F7CF00239A
:100AA00029F0B701802F90E00E94B10893FC09C0A3
:100AB000552039F0B70180E390E00E94B1085A94C4
:100AC000F7CF97FE4CC04601D7FE02C0812C912C77
:100AD000C60188199909F301E80FF91FFE87ED8710
:100AE000960124193109388B2F87012F10E01195B9
:100AF000019511093FEF8316930629F4B7018EE2A1
:100B000090E00E94B108C814D9044CF08F859889F0
:100B10008815990524F4ED85FE85818101C080E367
:100B2000F1E08F1A91082D853E852F5F3F4F3E875C
:100B30002D87801691062CF0B70190E00E94B10835
:100B4000D9CFC814D90441F49A81963320F495334F
:100B500019F43C8534FF81E3B70190E04EC08A81EF
:100B6000813319F09C859F7E9C87B70190E00E949D
:100B7000B108111105C094FC18C085E690E017C0BB
:100B8000B7018EE290E00E94B1081E5F82E001E0B2
:100B9000080FF301E80FF11D8081B70190E00E947A
:100BA000B108802F0113F3CFE6CF85E490E0B701C1
:100BB0000E94B108D7FC06C0C114D10441F4EC85F1
:100BC000E4FF05C0D194C194D1088DE201C08BE24D
:100BD000B70190E00E94B10880E32AE0C216D10478
:100BE0002CF08F5FFAE0CF1AD108F7CFB70190E071
:100BF0000E94B108B701C601C0960E94B10854C155
:100C0000833631F0833779F0833509F056C020C040
:100C1000560132E0A30EB11CF6018081898301E008
:100C200010E0630112C05601F2E0AF0EB11CF601F4
:100C3000C080D18096FE03C0612F70E002C06FEFCC
:100C40007FEFC6010E94A6088C01F92DFF7714C022
:100C5000560122E0A20EB11CF601C080D18096FEA2
:100C600003C0612F70E002C06FEF7FEFC6010E94EA
:100C70009B088C01F92DF0689F2EF3FD1AC0852D7D
:100C800090E008171907A8F4B70180E290E00E94ED
:100C9000B1085A94F4CFF60197FC859197FE8191A3
:100CA0006F01B70190E00E94B10851105A940150B1
:100CB00011090115110579F7F7C0843611F089364D
:100CC00061F5560197FE09C024E0A20EB11CF601A1
:100CD00060817181828193810AC0F2E0AF0EB11C04
:100CE000F60160817181072E000C880B990BF92D9C
:100CF000FF769F2E97FF09C090958095709561951E
:100D00007F4F8F4F9F4FF0689F2E2AE030E0A30166
:100D10000E94ED08C82EC6183FC0092D853721F462
:100D20000F7E2AE030E01DC0097F8F3691F018F465
:100D3000883559F0C3C0803719F0883711F0BEC02C
:100D4000006104FF09C0046007C094FE08C006608B
:100D500006C028E030E005C020E130E002C020E11C
:100D600032E0560107FF09C084E0A80EB11CF6016D
:100D7000608171818281938108C0F2E0AF0EB11C65
:100D8000F6016081718180E090E0A3010E94ED088E
:100D9000C82EC6180F77902E96FE0BC0092D0E7F19
:100DA000C11650F494FE0AC092FC08C0092D0E7EB4
:100DB00005C0DC2C092D03C0DC2C01C0D12E04FFA2
:100DC0000DC0FE01EC0DF11D8081803311F4097E10
:100DD00009C002FF06C0D394D39404C0802F867844
:100DE00009F0D39403FD11C000FF06C01C2DD514DB
:100DF00080F4150D1D190DC0D51458F4B70180E20B
:100E000090E00E94B108D394F7CFD51410F45D1888
:100E100001C0512C04FF10C0B70180E390E00E9494
:100E2000B10802FF17C001FD03C088E790E002C0CF
:100E300088E590E0B7010CC0802F867859F001FF5B
:100E400002C08BE201C080E207FD8DE2B70190E0B5
:100E50000E94B108C11638F4B70180E390E00E9407
:100E6000B1081150F7CFCA94F301EC0DF11D808148
:100E7000B70190E00E94B108C110F5CF15C0F4E0B1
:100E8000F51560F584E0581A93FE1FC0011127C0C4
:100E90002C8523FF2AC006E910E0392D3071932EEE
:100EA000F8018491811124C0552009F4E4CCB701E4
:100EB00080E290E00E94B1085A94F6CFF701868153
:100EC000978126C08FEF9FEF23C0B70180E290E0AB
:100ED0000E94B1085A945110F8CFD8CF512CB701C5
:100EE000802F90E00E94B108D3CF0AE910E0D5CF5F
:100EF00091108052B70190E00E94B1080F5F1F4F20
:100F0000CFCF23E0251510F483E0BDCF512CC0CF07
:100F10006096E2E10C94A8072F923F924F925F9265
:100F20006F927F928F929F92AF92BF92CF92DF92F9
:100F3000EF92FF920F931F93CF93DF93CDB7DEB75E
:100F4000CA1BDB0B0FB6F894DEBF0FBECDBF0994F2
:100F50002A88398848885F846E847D848C849B8449
:100F6000AA84B984C884DF80EE80FD800C811B8157
:100F7000AA81B981CE0FD11D0FB6F894DEBF0FBE86
:100F8000CDBFED010895283008F027E03327DA01BE
:100F9000990F311D87FD916000966105710539F447
:100FA00032602E5F3D9330E32A95E1F708959F3F2D
:100FB00030F080387105610509F03C5F3C5F3D937E
:100FC000913008F08068911DDF93CF931F930F93AA
:100FD000FF92EF92192F987F9695E92F9695969507
:100FE000E90FFF27E850FF4F99273327EE24FF240E
:100FF000A701E70105900894079428F4360FE71E2F
:10100000F81E491F511D660F771F881F991F0694F0
:10101000A1F70590079428F4E70EF81E491F561F04
:10102000C11D770F881F991F661F0694A1F70590B1
:10103000079428F4F80E491F561FC71FD11D880FAB
:10104000991F661F771F0694A1F70590079420F457
:10105000490F561FC71FD81F990F661F771F881F7C
:101060000694A9F784911095177041F0D695C7950D
:1010700057954795F794E7941A95C1F7EEE9F0E094
:1010800068941590159135916591959105907FE241
:101090007395E118F10A430B560BC90BD009C0F741
:1010A000E10CF11E431F561FC91FD01D7EF4703383
:1010B00011F48A95E6CFE894015030F0080F0AF455
:1010C0000027021708F4202F2395022F7A3328F0E7
:1010D00079E37D932A95E9F710C07D932A9589F6E7
:1010E000069497956795379517951794E118F10A27
:1010F000430B560BC90BD00998F023957E9173953D
:101100007A3308F070E37C932013B8F77E91706116
:101110007D9330F0839571E37D9370E32A95E1F739
:101120001124EF90FF900F911F91CF91DF9199279C
:1011300087FD90950895FC01059061507040011065
:10114000D8F7809590958E0F9F1F0895FC016150F0
:10115000704001900110D8F7809590958E0F9F1FD9
:1011600008950F931F93CF93DF93FB01238121FDFC
:1011700003C08FEF9FEF2CC022FF16C0468157811E
:10118000248135814217530744F4A081B1819D0128
:101190002F5F3F4F318320838C93268137812F5FD0
:1011A0003F4F3783268314C08B01EC01FB01008481
:1011B000F185E02D0995892BE1F6D80116968D91E0
:1011C0009C911797019617969C938E931697CE0134
:1011D000DF91CF911F910F910895FA01AA2728302E
:1011E00051F1203181F1E8946F936E7F6E5F7F4FF4
:1011F0008F4F9F4FAF4FB1E03ED0B4E03CD0670F70
:10120000781F891F9A1FA11D680F791F8A1F911DC2
:10121000A11D6A0F711D811D911DA11D20D009F412
:1012200068943F912AE0269F11243019305D319354
:10123000DEF6CF010895462F4770405D4193B3E03D
:101240000FD0C9F7F6CF462F4F70405D4A3318F0E4
:10125000495D31FD4052419302D0A9F7EACFB4E095
:10126000A6959795879577956795BA95C9F700974D
:101270006105710508959B01AC010A2E06945795EE
:10128000479537952795BA95C9F7620F731F841F45
:10129000951FA01D08955058BB27AA270E946309D7
:1012A0000C94460B0E94380B38F00E943F0B20F044
:1012B00039F49F3F19F426F40C940E0B0EF4E095CC
:1012C000E7FB0C94080BE92F0E94570B58F3BA1751
:1012D000620773078407950720F079F4A6F50C944C
:1012E000790B0EF4E0950B2EBA2FA02D0B01B9014E
:1012F00090010C01CA01A0011124FF27591B99F08C
:10130000593F50F4503E68F11A16F040A22F232F97
:10131000342F4427585FF3CF469537952795A795E7
:10132000F0405395C9F77EF41F16BA0B620B730B8E
:10133000840BBAF09150A1F0FF0FBB1F661F771FFF
:10134000881FC2F70EC0BA0F621F731F841F48F4B4
:10135000879577956795B795F7959E3F08F0B0CF3D
:101360009395880F08F09927EE0F97958795089524
:101370000E94380B60F080E891E009F49EEF0E9433
:101380003F0B28F040E851E071F45EEF0CC00C9484
:101390000E0B0C94790BE92FE0780E94570B40F369
:1013A000092E052AB1F3261737074807590738F0E1
:1013B0000E2E07F8E02569F0E025E0640AC0EF632F
:1013C00007F8009407FADB01B9019D01DC01CA01AD
:1013D000AD01EF930E94410A0E94460B0E94FB0957
:1013E0005F91552339F02BED3FE049E450FD49EC86
:1013F0000C944C090895DF93DD27B92FBF7740E89F
:101400005FE31616170648075B0718F4D92F0E94EA
:10141000800B9F938F937F936F930E94F50BE8E669
:10142000F0E00E94110B0E94460B2F913F914F91CB
:101430005F910E949B0BDD2351F09058A2EA2AEDA8
:101440003FE049EC5FE3D0785D270E946309DF91BC
:101450000C94460B0E943E0A0C94460B0E943F0BD4
:1014600058F00E94380B40F029F45F3F29F00C94AB
:10147000080B51110C947A0B0C940E0B0E94570B15
:1014800068F39923B1F3552391F3951B550BBB27B3
:10149000AA2762177307840738F09F5F5F4F220FF8
:1014A000331F441FAA1FA9F335D00E2E3AF0E0E8EF
:1014B00032D091505040E695001CCAF72BD0FE2F39
:1014C00029D0660F771F881FBB1F261737074807CD
:1014D000AB07B0E809F0BB0B802DBF01FF27935885
:1014E0005F4F3AF09E3F510578F00C94080B0C9436
:1014F0007A0B5F3FE4F3983ED4F386957795679532
:10150000B795F7959F5FC9F7880F911D96958795B9
:1015100097F90895E1E0660F771F881FBB1F6217D8
:1015200073078407BA0720F0621B730B840BBA0B96
:10153000EE1F88F7E09508950E945F0B88F09F5793
:1015400098F0B92F9927B751B0F0E1F0660F771FE7
:10155000881F991F1AF0BA95C9F714C0B13091F0DD
:101560000E94790BB1E008950C94790B672F782FC6
:101570008827B85F39F0B93FCCF3869577956795A2
:10158000B395D9F73EF490958095709561957F4F0E
:101590008F4F9F4F0895E89409C097FB3EF49095B4
:1015A0008095709561957F4F8F4F9F4F9923A9F03C
:1015B000F92F96E9BB279395F695879577956795CB
:1015C000B795F111F8CFFAF4BB0F11F460FF1BC00F
:1015D0006F5F7F4F8F4F9F4F16C0882311F096E9A2
:1015E00011C0772321F09EE8872F762F05C0662350
:1015F00071F096E8862F70E060E02AF09A95660F09
:10160000771F881FDAF7880F9695879597F90895C1
:1016100097F99F6780E870E060E008959FEF80ECA5
:101620000895DF93CF931F930F93FF92EF92DF9272
:101630007B018C01689406C0DA2EEF010E949B0B9F
:10164000FE01E894A5912591359145915591A6F318
:10165000EF010E946309FE019701A801DA9469F77E
:10166000DF90EF90FF900F911F91CF91DF91089540
:1016700000240A9416161706180609060895002471
:101680000A9412161306140605060895092E0394EB
:10169000000C11F4882352F0BB0F40F4BF2B11F45F
:1016A00060FF04C06F5F7F4F8F4F9F4F089557FDBE
:1016B0009058440F551F59F05F3F71F04795880FC0
:1016C00097FB991F61F09F3F79F087950895121657
:1016D00013061406551FF2CF4695F1DF08C0161603
:1016E00017061806991FF1CF8695710561050894B4
:1016F0000895E894BB2766277727CB0197F90895CB
:101700009B01AC0160E070E080E89FE30C942A0A42
:101710000E949B0B0C94460B0E94380B38F00E94E1
:101720003F0B20F0952311F00C94080B0C940E0B3A
:1017300011240C947A0B0E94570B70F3959FC1F300
:10174000950F50E0551F629FF001729FBB27F00D6F
:10175000B11D639FAA27F00DB11DAA1F649F6627C4
:10176000B00DA11D661F829F2227B00DA11D621F13
:10177000739FB00DA11D621F839FA00D611D221FCD
:10178000749F3327A00D611D231F849F600D211DB1
:10179000822F762F6A2F11249F5750409AF0F1F034
:1017A00088234AF0EE0FFF1FBB1F661F771F881F9D
:1017B00091505040A9F79E3F510580F00C94080BC2
:1017C0000C947A0B5F3FE4F3983ED4F386957795BB
:1017D0006795B795F795E7959F5FC1F7FE2B880F43
:1017E000911D9695879597F908959B01AC010C94EE
:1017F000880BA0E0B0E0EFEFFBE00C949C07AE019B
:101800004B5F5F4FFA0161917191AF01809173015C
:10181000909174010E940F04E2E00C94B807F894D0
:02182000FFCFF8
:10182200010000000200000000EB0000000000A028
:101832000FD007A00FD007A00FD007F055FF03FF6E
:1018420003FF03FF03FF03FF035D02A901B801BD0C
:1018520001E0018C0065010601B1003101BE000703
:1018620000860686068606860686068606EA10EA4A
:1018720010EA10EA10EA10EA1044657669636520FE
:0C18820049443D25640A0D0025640A005D
:00000001FF
