:100000000C9434000C9451000C9451000C94510049
:100010000C9451000C9451000C9451000C9451001C
:100020000C9451000C9451000C9451000C947A00E3
:100030000C9451000C9451000C9451000C945100FC
:100040000C945C000C9451000C9451000C945100E1
:100050000C9451000C9451000C9451000C945100DC
:100060000C9451000C94510011241FBECFEFD8E026
:10007000DEBFCDBF21E0A6E3B1E001C01D92A034F8
:10008000B207E1F711E0A0E0B1E0EAE0F7E002C07A
:1000900005900D92A633B107D9F70E94C3000C94C6
:1000A00083030C9400009091C00095FFFCCF8093D7
:1000B000C60080E090E008951F920F920FB60F9255
:1000C00011248F939F9386B58A5F86BD1092390164
:1000D00010923801809136019091370101969093EA
:1000E0003701809336019F918F910F900FBE0F9033
:1000F0001F9018951F920F920FB60F9211242F93F5
:100100008F939F93EF93FF93809100018630E0F4EB
:100110002091000181E090E001C0880F2A95EAF764
:1001200085B9E0910001F0E0EE0FFF1FE15FFE4FA7
:100130008081918190938900809388008091000153
:100140008F5F8093000115C080910001863089F493
:10015000E0910001F0E0EE0FFF1FE15FFE4F8081B4
:10016000918190938900809388001092000185B15D
:1001700015B8FF91EF919F918F912F910F900FBE26
:100180000F901F90189584B19FEF94B91092810041
:1001900086B3876086BB80918100886080938100F0
:1001A000109285001092840020910F01309110016F
:1001B000309389002093880080916F008260809343
:1001C0006F008091810082608093810081E085B919
:1001D000789480917C00806480937C0080917A0088
:1001E000876080937A0080917A00806880937A009B
:1001F00080917E0090937E0080E190E09093C50016
:100200008093C40088E18093C1008EE08093C20097
:1002100081E091E090933D0180933C0130E4632EB6
:100220003CE9732E99E2C92E91E0D92E2DE1E22E00
:1002300021E0F22EC0E0D0E0512CC63009F447C0D6
:10024000F60100811181F70160817181601B710BE2
:1002500080E090E00E94880220E030EC4FE754E418
:100260000E94E7014B015C0180917C00807F8C2B18
:1002700080937C0080917A00806480937A008091E2
:100280007A0086FDFCCF609178007091790080E063
:1002900090E00E948802A50194010E9416034B0180
:1002A0005C01B80180E090E00E9488029B01AC01F3
:1002B000C501B4010E947B010E945902560EFE0145
:1002C000EE0FFF1FE15FFE4F7183608307C0C30124
:1002D0008519910990931C0180931B01219682E05E
:1002E000C80ED11C92E0E90EF11CC730D10509F00F
:1002F000A4CF98CF5058BB27AA270E9492010C94F4
:10030000DC020E94CE0238F00E94D50220F039F4BF
:100310009F3F19F426F40C94CB020EF4E095E7FB12
:100320000C94C502E92F0E94ED0258F3BA17620738
:1003300073078407950720F079F4A6F50C940F0352
:100340000EF4E0950B2EBA2FA02D0B01B9019001F0
:100350000C01CA01A0011124FF27591B99F0593F34
:1003600050F4503E68F11A16F040A22F232F342F7C
:100370004427585FF3CF469537952795A795F040CA
:100380005395C9F77EF41F16BA0B620B730B840BDF
:10039000BAF09150A1F0FF0FBB1F661F771F881F97
:1003A000C2F70EC0BA0F621F731F841F48F48795EF
:1003B00077956795B795F7959E3F08F0B0CF9395E1
:1003C000880F08F09927EE0F9795879508950E945A
:1003D000FB010C94DC020E94D50258F00E94CE0270
:1003E00040F029F45F3F29F00C94C50251110C94A0
:1003F00010030C94CB020E94ED0268F39923B1F331
:10040000552391F3951B550BBB27AA27621773073A
:10041000840738F09F5F5F4F220F331F441FAA1FCE
:10042000A9F335D00E2E3AF0E0E832D0915050408A
:10043000E695001CCAF72BD0FE2F29D0660F771F38
:10044000881FBB1F261737074807AB07B0E809F01E
:10045000BB0B802DBF01FF2793585F4F3AF09E3FA3
:10046000510578F00C94C5020C9410035F3FE4F33F
:10047000983ED4F3869577956795B795F7959F5FE6
:10048000C9F7880F911D9695879597F90895E1E032
:10049000660F771F881FBB1F621773078407BA0791
:1004A00020F0621B730B840BBA0BEE1F88F7E095EC
:1004B00008950E94F50288F09F5798F0B92F992768
:1004C000B751B0F0E1F0660F771F881F991F1AF03F
:1004D000BA95C9F714C0B13091F00E940F03B1E092
:1004E00008950C940F03672F782F8827B85F39F091
:1004F000B93FCCF3869577956795B395D9F73EF4D8
:1005000090958095709561957F4F8F4F9F4F08957F
:10051000E89409C097FB3EF490958095709561959D
:100520007F4F8F4F9F4F9923A9F0F92F96E9BB2753
:100530009395F695879577956795B795F111F8CFCF
:10054000FAF4BB0F11F460FF1BC06F5F7F4F8F4F3A
:100550009F4F16C0882311F096E911C0772321F030
:100560009EE8872F762F05C0662371F096E8862FC8
:1005700070E060E02AF09A95660F771F881FDAF71F
:10058000880F9695879597F9089597F99F6780E862
:1005900070E060E008959FEF80EC089500240A94D5
:1005A0001616170618060906089500240A9412164E
:1005B0001306140605060895092E0394000C11F481
:1005C000882352F0BB0F40F4BF2B11F460FF04C02E
:1005D0006F5F7F4F8F4F9F4F089557FD9058440F87
:1005E000551F59F05F3F71F04795880F97FB991F92
:1005F00061F09F3F79F0879508951216130614064F
:10060000551FF2CF4695F1DF08C0161617061806DB
:10061000991FF1CF86957105610508940895E894B6
:10062000BB2766277727CB0197F908950E942903F6
:100630000C94DC020E94CE0238F00E94D50220F019
:10064000952311F00C94C5020C94CB0211240C9448
:1006500010030E94ED0270F3959FC1F3950F50E0D7
:10066000551F629FF001729FBB27F00DB11D639F64
:10067000AA27F00DB11DAA1F649F6627B00DA11D0A
:10068000661F829F2227B00DA11D621F739FB00DB0
:10069000A11D621F839FA00D611D221F749F332720
:1006A000A00D611D231F849F600D211D822F762FB9
:1006B0006A2F11249F5750409AF0F1F088234AF096
:1006C000EE0FFF1FBB1F661F771F881F9150504002
:1006D000A9F79E3F510580F00C94C5020C941003BD
:1006E0005F3FE4F3983ED4F3869577956795B79589
:1006F000F795E7959F5FC1F7FE2B880F911D9695A3
:0A070000879597F90895F894FFCF4C
:10070A00010000000200000000530000000000A0E9
:10071A000FD007A00FD007A00FD007F055A00FA049
:10072A000FA00FA00FA00FA00FD007D007D007D09F
:06073A0007D007D0070004
:00000001FF
