:100000000C9434000C9451000C9451000C94510049
:100010000C9451000C9451000C9451000C9451001C
:100020000C9451000C9451000C9451000C947100EC
:100030000C9451000C9451000C9451000C945100FC
:100040000C9453000C9451000C9451000C945100EA
:100050000C9451000C9451000C9451000C945100DC
:100060000C9451000C94510011241FBECFEFD8E026
:10007000DEBFCDBF21E0ACE0B1E001C01D92A331F5
:10008000B207E1F711E0A0E0B1E0E8E8F1E002C07A
:1000900005900D92AC30B107D9F70E94A7000C94DF
:1000A000C2000C9400001F920F920FB60F92112401
:1000B0008F939F9386B58A5F86BD1092120110922E
:1000C000110180910F019091100101969093100100
:1000D00080930F019F918F910F900FBE0F901F90F3
:1000E00018951F920F920FB60F9211242F933F93E2
:1000F0008F939F93EF93FF9320910E012D5F81E0EB
:1001000090E001C0880F2A95EAF78BB980910E0123
:10011000E82FF0E0EE0FFF1FEE5FFE4F20813181F0
:1001200030938900209388008F5F863019F0809388
:100130000E0102C010920E01FF91EF919F918F91DD
:100140003F912F910F900FBE0F901F901895109216
:10015000810086B3876086BB8AE0809381008091AE
:100160006F00826080936F0010928500109284006F
:1001700088EB9BE0909389008093880078948FE3CC
:080180008AB9FFCFF894FFCF0C
:0C018800A00FD007B80BB80BB80BB80BD9
:00000001FF
