:100000000C9434000C9446000C9446000C9446006A
:100010000C9446000C9446000C9446000C94460048
:100020000C9446000C9446000C9446000C94480036
:100030000C9446000C9446000C9446000C94460028
:100040000C9457000C9446000C9446000C94460007
:100050000C9446000C9446000C9446000C94460008
:100060000C9446000C94460011241FBECFEFD8E03C
:10007000DEBFCDBF21E0A0E0B1E001C01D92A43001
:10008000B207E1F70E9475000C94CA000C940000BE
:100090001F920F920FB60F9211248F9385B18FEF9D
:1000A00085B98F910F900FBE0F901F9018951F92DA
:1000B0000F920FB60F9211248F939F9386B58A5F8C
:1000C00086BD10920301109202018091000190916F
:1000D0000101019690930101809300019F918F91FE
:1000E0000F900FBE0F901F9018958FEF84B982E884
:1000F000809380008091810088618093810080914D
:10010000810084608093810080916F008260809381
:100110006F0081EE94E0909387008093860078943E
:1001200080918400909185004997D0F3809184005C
:10013000909185008739910598F78091840090917E
:1001400085008D37910510F02899289880918400BA
:1001500090918500CC9710F029992998809184007E
:10016000909185008035910510F02A992A98809108
:100170008400909185008436910510F02B992B987E
:1001800080918400909185004E9750F22C9BC8CFAF
:080190002C98C6CFF894FFCFB4
:00000001FF
