:100000000C9434000C9451000C9451000C94510049
:100010000C9451000C9451000C9451000C9451001C
:100020000C9451000C9451000C9451000C947100EC
:100030000C9451000C9451000C9451000C945100FC
:100040000C9453000C9451000C9451000C945100EA
:100050000C9451000C9451000C9451000C945100DC
:100060000C9451000C94510011241FBECFEFD8E026
:10007000DEBFCDBF21E0A4E0B1E001C01D92A930F8
:10008000B207E1F711E0A0E0B1E0ECEEF1E002C070
:1000900005900D92A430B107D9F70E94A7000C94E7
:1000A000F4000C9400001F920F920FB60F921124CF
:1000B0008F939F9386B58A5F86BD10920801109238
:1000C0000701809105019091060101969093060128
:1000D000809305019F918F910F900FBE0F901F90FD
:1000E00018951F920F920FB60F9211242F933F93E2
:1000F0008F939F93EF93FF93209104012F5F81E0F3
:1001000090E001C0880F2A95EAF785B98091040133
:10011000E82FF0E0EE0FFF1FE050FF4F208131810C
:1001200030938900209388008F5F893018F4809382
:10013000040102C010920401FF91EF919F918F91F1
:100140003F912F910F900FBE0F901F9018958FEF3A
:1001500084B9809181008A608093810080916F00D2
:10016000826080936F008AEF9FEF90938500809369
:100170008400789448EE53E02CED35E080ED97E074
:1001800050930101409300015093030140930201F9
:100190006FEF77EAE1E661507040E040E1F700C0C0
:1001A000000030930101209300013093030120935C
:1001B00002016FEF77EAE1E661507040E040E1F75D
:1001C00000C000009093010180930001909303010F
:1001D000809302016FEF77EAE1E661507040E04002
:0C01E000E1F700C00000CCCFF894FFCF86
:0401EC00DC057017A7
:00000001FF
