:100000000C944B000C9468000C9468000C946800ED
:100010000C9468000C9468000C9468000C946800C0
:100020000C9468000C9468000C9468000C946800B0
:100030000C9468000C9468000C9468000C946800A0
:100040000C944F010C9468000C9468000C946800A8
:100050000C9468000C9468000C9468000C94680080
:100060000C9468000C946800084AD73B3BCE016EA4
:1000700084BCBFFDC12F3D6C74319ABD56833DDAFF
:100080003D00C77F11BED9E4BB4C3E916BAAAABE0E
:10009000000000803F0011241FBECFEFD8E0DEBF7C
:1000A000CDBF21E0A2E3B1E001C01D92AD33B207A4
:1000B000E1F711E0A0E0B1E0E2E2F0E102C005907A
:1000C0000D92A233B107D9F70E946D010C940F086D
:1000D0000C9400009091C00095FFFCCF8093C60067
:1000E00080E090E008958093BB0084E88093BC009A
:1000F0008091BC0087FFFCCF8091B900887F80335E
:10010000C1F058F48831C9F018F4811114C011C03D
:10011000803279F0883289F00EC0883451F028F4AA
:10012000883339F0803449F006C0803531F08835A5
:1001300011F481E0089582E0089580E0089584E953
:100140008093BC008091BC0084FDFCCF089584EABC
:100150008093BC008091BC0087FFFCCF8091B900E8
:10016000887F883021F0803111F081E0089580E0AF
:1001700008950F931F93CF93DF93D82F8B01C3E183
:100180000E94A700882341F0CF3F11F0C150F8CF63
:100190000E949F00C1E01DC086EA0E947300882370
:1001A00031F0CF3F99F70E949F00C2E012C08D2F1F
:1001B0000E94730081110AC0F80180810E947300BF
:1001C000C82F811105C00E949F0003C0C3E001C079
:1001D000C4E08C2FDF91CF911F910F910895FF9272
:1001E0000F931F93CF93DF93882309F448C08A01AC
:1001F000F62ED82FC3E10E94A700882329F0CC2334
:1002000009F43FC0C150F7CF86EA0E9473008823EB
:1002100031F0C111F7CF0E949F00C2E039C08F2D8D
:100220000E94730081112FC00E94A70081112DC070
:1002300087EA0E947300C82F811129C0F8018D2F11
:1002400094EC813059F09093BC002091BC0027FFC2
:10025000FCCF2091BB0021938150F3CFD150F80106
:10026000ED0FF11D84E88093BC008091BC0087FFF6
:10027000FCCF8091BB0080830E949F0009C0C0E03A
:1002800007C0C1E005C0C3E003C0C4E001C0C5E0D1
:100290008C2FDF91CF911F910F91FF9008951F92A6
:1002A0000F920FB60F9211248F939F9386B58A5F9A
:1002B00086BD1092360110923501809133019091E4
:1002C0003401019690933401809333019F918F9173
:1002D0000F900FBE0F901F901895CF93DF9300D013
:1002E00000D000D0CDB7DEB780E190E09093C5009C
:1002F0008093C40088E18093C1008EE08093C200A7
:1003000080E091E090933A018093390187B18F7C2E
:1003100087B988B18F7C88B91092B90088E480933E
:10032000B80084E08093BC008AE08C8318E01B83D3
:10033000198242E351E060E081E00E94EF00809189
:1003400032011F928F938EE091E09F938F930E94D2
:100350003105BE016F5F7F4F8DE20E94B900BE0183
:100360006C5F7F4F8CE20E94B900BE016D5F7F4FD2
:1003700081E30E94B9001983BE016F5F7F4F8DE258
:100380000E94B9002FEF89EF90E02150804090400B
:10039000E1F700C000008CEF8D831F928F930EE277
:1003A00011E01F930F930E943105BE016B5F7F4FD9
:1003B0008EE10E94B90085E08E831F928F931F9378
:1003C0000F930E943105BE016A5F7F4F8FE10E944B
:1003D000B9000FB6F894DEBF0FBECDBF0DE111E03E
:1003E000AE014F5F5F4F62E382E00E94EF006A81DF
:1003F00070E0762F66278981680F711D80E090E09C
:100400000E94A80320E030E040E85BE30E9465041E
:100410006B017C01AE014F5F5F4F64E382E00E949D
:10042000EF006A8170E0762F66278981680F711D61
:1004300080E090E00E94A80320E030E040E85BE329
:100440000E9465044B015C01AE014F5F5F4F66E3A4
:1004500082E00E94EF006A8170E0762F6627898132
:10046000680F711D80E090E00E94A80320E030E05A
:1004700040E85BE30E9465049B01AC010E946504B7
:100480002B013C01A5019401C501B4010E94650442
:100490009B01AC01C301B2010E949B020E94D804DF
:1004A0004B015C019B01AC01C701B6010E94360300
:1004B0000E9407032B013C01C701B6019058A5011A
:1004C00094010E9436030E94070320E030E044E3D9
:1004D00053E40E9465042BED3FE049E450E40E94A0
:1004E00036039F938F937F936F9320E030E044E334
:1004F00053E4C301B2010E9465042BED3FE049E4DF
:1005000050E40E9436039F938F937F936F931F93C2
:100510000F930E9431059FEF21EE84E0915020401F
:100520008040E1F700C000000FB6F894DEBF0FBEB8
:10053000CDBF56CF5058BB27AA270E94B2020C94B9
:1005400023040E94150438F00E941C0420F039F4A2
:100550009F3F19F426F40C94EB030EF4E095E7FBAF
:100560000C94E503E92F0E94340458F3BA1762078C
:1005700073078407950720F079F4A6F50C945604C8
:100580000EF4E0950B2EBA2FA02D0B01B9019001AE
:100590000C01CA01A0011124FF27591B99F0593FF2
:1005A00050F4503E68F11A16F040A22F232F342F3A
:1005B0004427585FF3CF469537952795A795F04088
:1005C0005395C9F77EF41F16BA0B620B730B840B9D
:1005D000BAF09150A1F0FF0FBB1F661F771F881F55
:1005E000C2F70EC0BA0F621F731F841F48F48795AD
:1005F00077956795B795F7959E3F08F0B0CF93959F
:10060000880F08F09927EE0F979587950895DF9347
:10061000DD27B92FBF7740E85FE3161617064807B6
:100620005B0718F4D92F0E945D049F938F937F93EB
:100630006F930E941805E8E6F0E00E94EE030E9426
:1006400023042F913F914F915F910E947804DD2305
:1006500051F09058A2EA2AED3FE049EC5FE3D078F0
:100660005D270E94B202DF910C9423040E944A038A
:100670000C9423040E941C0458F00E94150440F0BE
:1006800029F45F3F29F00C94E50351110C945704B1
:100690000C94EB030E94340468F39923B1F35523BF
:1006A00091F3951B550BBB27AA2762177307840785
:1006B00038F09F5F5F4F220F331F441FAA1FA9F31B
:1006C00035D00E2E3AF0E0E832D091505040E69509
:1006D000001CCAF72BD0FE2F29D0660F771F881F6A
:1006E000BB1F261737074807AB07B0E809F0BB0B5D
:1006F000802DBF01FF2793585F4F3AF09E3F510571
:1007000078F00C94E5030C9457045F3FE4F3983EB3
:10071000D4F3869577956795B795F7959F5FC9F759
:10072000880F911D9695879597F90895E1E0660FDA
:10073000771F881FBB1F621773078407BA0720F053
:10074000621B730B840BBA0BEE1F88F7E0950895BC
:10075000E89409C097FB3EF490958095709561955B
:100760007F4F8F4F9F4F9923A9F0F92F96E9BB2711
:100770009395F695879577956795B795F111F8CF8D
:10078000FAF4BB0F11F460FF1BC06F5F7F4F8F4FF8
:100790009F4F16C0882311F096E911C0772321F0EE
:1007A0009EE8872F762F05C0662371F096E8862F86
:1007B00070E060E02AF09A95660F771F881FDAF7DD
:1007C000880F9695879597F9089597F99F6780E820
:1007D00070E060E008959FEF80EC0895DF93CF9381
:1007E0001F930F93FF92EF92DF927B018C0168942D
:1007F00006C0DA2EEF010E947804FE01E894A5916C
:100800002591359145915591A6F3EF010E94B202D1
:10081000FE019701A801DA9469F7DF90EF90FF904D
:100820000F911F91CF91DF91089500240A9416161D
:10083000170618060906089500240A9412161306CE
:10084000140605060895092E0394000C11F488235C
:1008500052F0BB0F40F4BF2B11F460FF04C06F5F78
:100860007F4F8F4F9F4F089557FD9058440F551F4E
:1008700059F05F3F71F04795880F97FB991F61F022
:100880009F3F79F087950895121613061406551F99
:10089000F2CF4695F1DF08C0161617061806991F05
:1008A000F1CF86957105610508940895E894BB27FA
:1008B00066277727CB0197F908959B01AC0160E08B
:1008C00070E080E89FE30C9436030E9478040C9457
:1008D00023040E94150438F00E941C0420F0952384
:1008E00011F00C94E5030C94EB0311240C945704C1
:1008F0000E94340470F3959FC1F3950F50E0551F8B
:10090000629FF001729FBB27F00DB11D639FAA2764
:10091000F00DB11DAA1F649F6627B00DA11D661FB3
:10092000829F2227B00DA11D621F739FB00DA11DD4
:10093000621F839FA00D611D221F749F3327A00D8E
:10094000611D231F849F600D211D822F762F6A2F2A
:1009500011249F5750409AF0F1F088234AF0EE0F8F
:10096000FF1FBB1F661F771F881F91505040A9F7BC
:100970009E3F510580F00C94E5030C9457045F3FB3
:10098000E4F3983ED4F3869577956795B795F795F8
:10099000E7959F5FC1F7FE2B880F911D9695879570
:1009A00097F9089519F416F40C94EB030C941C05B4
:1009B0000E943C04B8F39923C9F3B6F39F57550B33
:1009C00087FF0E942A050024A0E640EA9001805893
:1009D0005695979528F4805C660F771F881F20F046
:1009E00026173707480730F4621B730B840B202946
:1009F00031294A2BA69517940794202531254A279B
:100A000058F7660F771F881F20F02617370748070B
:100A100030F4620B730B840B200D311D411DA0952A
:100A200081F7B901842F9158880F9695879508957D
:100A30009B01AC010C9465049F3F31F0915020F470
:100A4000879577956795B795880F911D96958795AA
:100A500097F9089591505040660F771F881FD2F77D
:100A60000895A0E0B0E0E7E3F5E00C94E807AE01FC
:100A70004B5F5F4FFA0161917191AF018091390134
:100A800090913A010E944705E2E00C940408ABE023
:100A9000B0E0EDE4F5E00C94D8076C017B018A012D
:100AA000FC0117821682838181FFCCC1CE010196A1
:100AB0003C01F6019381F70193FD859193FF8191AC
:100AC0007F01882309F4BAC1853239F493FD8591F9
:100AD00093FF81917F01853229F4B60190E00E9455
:100AE0003E07E7CF912C212C312CFFE1F315D8F0F4
:100AF0008B3279F038F4803279F08332A1F4232DEF
:100B000020611DC08D3261F0803369F4232D216096
:100B100016C0832D8260382EE32DE4603E2E2AC05D
:100B2000F32DF8601DC037FC2DC020ED280F2A30B2
:100B300040F08E32B9F436FC81C1232D2064322E70
:100B400019C036FE06C08AE0989E200D1124922E10
:100B500011C0EAE02E9E200D1124222EF32DF0620A
:100B60003F2E08C08C3621F4832D8068382E02C0B9
:100B7000883641F4F70193FD859193FF81917F01C0
:100B80008111B3CF982F9F7D9554933028F40C5F3B
:100B90001F4F9FE399830DC0833631F0833771F087
:100BA000833509F059C021C0F801808189830E5F27
:100BB0001F4F88248394912C530113C02801F2E025
:100BC0004F0E511CF801A080B18036FE03C0692D84
:100BD00070E002C06FEF7FEFC5010E9433074C0148
:100BE0008201F32DFF773F2E16C0280122E0420E2E
:100BF000511CF801A080B18036FE03C0692D70E061
:100C000002C06FEF7FEFC5010E9428074C01F32D52
:100C1000F0683F2E820133FC1BC0822D90E08816C5
:100C20009906B0F4B60180E290E00E943E072A9453
:100C3000F4CFF50137FC859137FE81915F01B60154
:100C400090E00E943E0721102A9421E0821A910828
:100C50008114910471F7E8C0843611F0893641F5AA
:100C6000F80137FE07C060817181828193810C5F3A
:100C70001F4F08C060817181072E000C880B990BF3
:100C80000E5F1F4FF32DFF763F2E97FF09C0909503
:100C90008095709561957F4F8F4F9F4FF0683F2EE5
:100CA0002AE030E0A3010E947A07882E861845C00A
:100CB000853731F4232D2F7EB22E2AE030E025C077
:100CC000932D997FB92E8F36C1F018F4883579F0BD
:100CD000B5C0803719F0883721F0B0C0E92FE06146
:100CE000BE2EB4FE0DC0FB2DF460BF2E09C034FE35
:100CF0000AC0292F2660B22E06C028E030E005C0C9
:100D000020E130E002C020E132E0F801B7FE07C088
:100D100060817181828193810C5F1F4F06C0608169
:100D2000718180E090E00E5F1F4FA3010E947A075F
:100D3000882E8618FB2DFF773F2E36FE0DC0232D03
:100D40002E7FA22E891458F434FE0BC032FC09C049
:100D5000832D8E7EA82E05C0B82CA32C03C0B82CE2
:100D600001C0B92CA4FE0FC0FE01E80DF11D808169
:100D7000803321F49A2D997EA92E09C0A2FE06C0C7
:100D8000B394B39404C08A2D867809F0B394A3FC7D
:100D900011C0A0FE06C0B21488F4280C922C9B1837
:100DA0000EC0B21460F4B60180E290E00E943E07EB
:100DB000B394F7CFB21418F42B1802C0982C212C3E
:100DC000A4FE10C0B60180E390E00E943E07A2FEA0
:100DD00017C0A1FC03C088E790E002C088E590E05E
:100DE000B6010CC08A2D867859F0A1FE02C08BE2B4
:100DF00001C080E2A7FC8DE2B60190E00E943E07B0
:100E0000891438F4B60180E390E00E943E079A947A
:100E1000F7CF8A94F301E80DF11D8081B60190E0CF
:100E20000E943E078110F5CF222009F442CEB60180
:100E300080E290E00E943E072A94F6CFF601868178
:100E4000978102C08FEF9FEF2B96E2E10C94F4079D
:100E5000FC010590615070400110D8F78095909585
:100E60008E0F9F1F0895FC0161507040019001108A
:100E7000D8F7809590958E0F9F1F08950F931F931D
:100E8000CF93DF93FB01238121FD03C08FEF9FEF01
:100E90002CC022FF16C0468157812481358142171C
:100EA000530744F4A081B1819D012F5F3F4F3183EF
:100EB00020838C93268137812F5F3F4F3783268392
:100EC00014C08B01EC01FB010084F185E02D099534
:100ED000892BE1F6D80116968D919C911797019672
:100EE00017969C938E931697CE01DF91CF911F9109
:100EF0000F910895FA01AA27283051F1203181F18C
:100F0000E8946F936E7F6E5F7F4F8F4F9F4FAF4F11
:100F1000B1E03ED0B4E03CD0670F781F891F9A1F24
:100F2000A11D680F791F8A1F911DA11D6A0F711DD8
:100F3000811D911DA11D20D009F468943F912AE0E4
:100F4000269F11243019305D3193DEF6CF010895CC
:100F5000462F4770405D4193B3E00FD0C9F7F6CFFD
:100F6000462F4F70405D4A3318F0495D31FD4052C5
:100F7000419302D0A9F7EACFB4E0A695979587955B
:100F800077956795BA95C9F700976105710508953A
:100F90009B01AC010A2E06945795479537952795E6
:100FA000BA95C9F7620F731F841F951FA01D08957E
:100FB0002F923F924F925F926F927F928F929F9269
:100FC000AF92BF92CF92DF92EF92FF920F931F9357
:100FD000CF93DF93CDB7DEB7CA1BDB0B0FB6F89408
:100FE000DEBF0FBECDBF09942A88398848885F8448
:100FF0006E847D848C849B84AA84B984C884DF80B9
:10100000EE80FD800C811B81AA81B981CE0FD11D9C
:101010000FB6F894DEBF0FBECDBFED010895F89472
:02102000FFCF00
:1010220000000002000000006A00000000004465A9
:10103200766963652049443D25640A0D00526F6C50
:101042006C3A202564092050697463683A2025644B
:021052000A0092
:00000001FF
