:100000000C9434000C9446000C9446000C9446006A
:100010000C9446000C9446000C9446000C94460048
:100020000C9446000C9446000C9446000C94460038
:100030000C9446000C9446000C9446000C94460028
:100040000C9458000C9446000C9446000C94460006
:100050000C9446000C9446000C9446000C94460008
:100060000C9446000C94460011241FBECFEFD8E03C
:10007000DEBFCDBF21E0A0E0B1E001C01D92A43001
:10008000B207E1F70E9476000C94A4000C940000E3
:1000900082E390E020E030E0F9013197F1F7F901D7
:1000A0003197F1F7F9013197F1F70197A9F7089521
:1000B0001F920F920FB60F9211248F939F9386B5C4
:1000C0008A5F86BD109203011092020180910001A7
:1000D00090910101019690930101809300019F91FD
:1000E0008F910F900FBE0F901F90189580918000F8
:1000F000826A80938000809181008B61809381006F
:1001000087E893E190938700809386008AB18063AB
:100110008AB98CE3E82EFF24F39401E610E0C7E1EE
:10012000D2E0F0928900E09288000E94480010938B
:100130008900009388000E944800D0938900C093F2
:0C01400088000E944800EDCFF894FFCF2B
:00000001FF
