:100000000C9434000C9451000C9451000C94510049
:100010000C9451000C9451000C9451000C9451001C
:100020000C9451000C9451000C9451000C9451000C
:100030000C9451000C9451000C9451000C945100FC
:100040000C9438010C9451000C9451000C94510004
:100050000C9451000C9451000C9451000C945100DC
:100060000C9451000C94510011241FBECFEFD8E026
:10007000DEBFCDBF21E0AAE2B1E001C01D92A533F1
:10008000B207E1F711E0A0E0B1E0ECEBF9E002C06B
:1000900005900D92AA32B107D9F70E9456010C942F
:1000A000DC040C9400009091C00095FFFCCF80937D
:1000B000C60080E090E008958093BB0084E88093C0
:1000C000BC008091BC0087FFFCCF8091B900887F85
:1000D0008033C1F058F48831C9F018F4811114C08C
:1000E00011C0803279F0883289F00EC0883451F026
:1000F00028F4883339F0803449F006C0803531F077
:10010000883511F481E0089582E0089580E0089533
:1001100084E98093BC008091BC0084FDFCCF0895ED
:1001200084EA8093BC008091BC0087FFFCCF809163
:10013000B900887F883021F0803111F081E0089586
:1001400080E008950F931F93CF93DF93D82F8B01F7
:10015000C3E10E949000882341F0CF3F11F0C150CD
:10016000F8CF0E948800C1E01DC086EA0E945C00B2
:10017000882331F0CF3F99F70E948800C2E012C077
:100180008D2F0E945C0081110AC0F80180810E94BD
:100190005C00C82F811105C00E94880003C0C3E025
:1001A00001C0C4E08C2FDF91CF911F910F91089572
:1001B000FF920F931F93CF93DF93882309F448C0D6
:1001C0008A01F62ED82FC3E10E949000882329F0DF
:1001D000CC2309F43FC0C150F7CF86EA0E945C00EF
:1001E000882331F0C111F7CF0E948800C2E039C0E6
:1001F0008F2D0E945C0081112FC00E949000811100
:100200002DC087EA0E945C00C82F811129C0F80127
:100210008D2F94EC813059F09093BC002091BC005C
:1002200027FFFCCF2091BB0021938150F3CFD15009
:10023000F801ED0FF11D84E88093BC008091BC00B3
:1002400087FFFCCF8091BB0080830E94880009C09B
:10025000C0E007C0C1E005C0C3E003C0C4E001C006
:10026000C5E08C2FDF91CF911F910F91FF900895E2
:100270001F920F920FB60F9211248F939F9386B502
:100280008A5F86BD10922E0110922D0180912B0164
:1002900090912C01019690932C0180932B019F91BA
:1002A0008F910F900FBE0F901F901895CF93DF93F3
:1002B00000D000D0CDB7DEB780E190E09093C500CC
:1002C0008093C40088E18093C1008EE08093C200D7
:1002D00080E091E0909332018093310187B18F7C6F
:1002E00087B988B18F7C88B91092B90088E480936F
:1002F000B80084E08093BC008AE08C8318E01B8304
:1003000019824AE251E060E081E00E94D8008091C9
:100310002A011F928F938EE091E09F938F930E940A
:10032000FE01BE016F5F7F4F8DE20E94A200BE0101
:100330006C5F7F4F8CE20E94A200BE016D5F7F4F19
:1003400081E30E94A2001983BE016F5F7F4F8DE29F
:100350000E94A2002FEF89EF90E021508040904052
:10036000E1F700C000000F900F900F900F903DE15B
:10037000C32E31E0D32EAE014F5F5F4F62E382E0C8
:100380000E94D8000A8110E0102F00278981080FF1
:10039000111DAE014F5F5F4F64E382E00E94D80001
:1003A000EA80F12CFE2CEE248981E80EF11CAE01CE
:1003B0004F5F5F4F66E382E00E94D8008A8190E041
:1003C000982F88272981820F911D9F938F93FF92E9
:1003D000EF921F930F93DF92CF920E94FE012FEFB7
:1003E00081EE94E0215080409040E1F700C0000091
:1003F0000FB6F894DEBF0FBECDBFBDCFA0E0B0E01A
:10040000E4E0F2E00C94B504AE014B5F5F4FFA01FB
:1004100061917191AF0180913101909132010E94FF
:100420001402E2E00C94D104ABE0B0E0EAE1F2E0C7
:100430000C94A5046C017B018A01FC0117821682D1
:10044000838181FFCCC1CE0101963C01F6019381ED
:10045000F70193FD859193FF81917F01882309F432
:10046000BAC1853239F493FD859193FF81917F0163
:10047000853229F4B60190E00E940B04E7CF912C5D
:10048000212C312CFFE1F315D8F08B3279F038F4C0
:10049000803279F08332A1F4232D20611DC08D328A
:1004A00061F0803369F4232D216016C0832D8260B2
:1004B000382EE32DE4603E2E2AC0F32DF8601DC0D7
:1004C00037FC2DC020ED280F2A3040F08E32B9F4D1
:1004D00036FC81C1232D2064322E19C036FE06C0A1
:1004E0008AE0989E200D1124922E11C0EAE02E9EE3
:1004F000200D1124222EF32DF0623F2E08C08C36E1
:1005000021F4832D8068382E02C0883641F4F7012B
:1005100093FD859193FF81917F018111B3CF982F36
:100520009F7D9554933028F40C5F1F4F9FE3998370
:100530000DC0833631F0833771F0833509F059C02F
:1005400021C0F801808189830E5F1F4F8824839426
:10055000912C530113C02801F2E04F0E511CF801F9
:10056000A080B18036FE03C0692D70E002C06FEF3D
:100570007FEFC5010E9400044C018201F32DFF773B
:100580003F2E16C0280122E0420E511CF801A08027
:10059000B18036FE03C0692D70E002C06FEF7FEFBF
:1005A000C5010E94F5034C01F32DF0683F2E820136
:1005B00033FC1BC0822D90E088169906B0F4B6017A
:1005C00080E290E00E940B042A94F4CFF50137FCFE
:1005D000859137FE81915F01B60190E00E940B0486
:1005E00021102A9421E0821A91088114910471F754
:1005F000E8C0843611F0893641F5F80137FE07C0AE
:1006000060817181828193810C5F1F4F08C060817E
:100610007181072E000C880B990B0E5F1F4FF32D75
:10062000FF763F2E97FF09C0909580957095619554
:100630007F4F8F4F9F4FF0683F2E2AE030E0A3019D
:100640000E944704882E861845C0853731F4232D33
:100650002F7EB22E2AE030E025C0932D997FB92E4F
:100660008F36C1F018F4883579F0B5C0803719F0AD
:10067000883721F0B0C0E92FE061BE2EB4FE0DC076
:10068000FB2DF460BF2E09C034FE0AC0292F26605E
:10069000B22E06C028E030E005C020E130E002C004
:1006A00020E132E0F801B7FE07C0608171818281EC
:1006B00093810C5F1F4F06C06081718180E090E0E4
:1006C0000E5F1F4FA3010E944704882E8618FB2D42
:1006D000FF773F2E36FE0DC0232D2E7FA22E8914CC
:1006E00058F434FE0BC032FC09C0832D8E7EA82E38
:1006F00005C0B82CA32C03C0B82C01C0B92CA4FE93
:100700000FC0FE01E80DF11D8081803321F49A2D88
:10071000997EA92E09C0A2FE06C0B394B39404C06A
:100720008A2D867809F0B394A3FC11C0A0FE06C000
:10073000B21488F4280C922C9B180EC0B21460F4EA
:10074000B60180E290E00E940B04B394F7CFB2149C
:1007500018F42B1802C0982C212CA4FE10C0B6014E
:1007600080E390E00E940B04A2FE17C0A1FC03C02E
:1007700088E790E002C088E590E0B6010CC08A2DC1
:10078000867859F0A1FE02C08BE201C080E2A7FC8E
:100790008DE2B60190E00E940B04891438F4B60192
:1007A00080E390E00E940B049A94F7CF8A94F301BF
:1007B000E80DF11D8081B60190E00E940B048110CC
:1007C000F5CF222009F442CEB60180E290E00E94EB
:1007D0000B042A94F6CFF6018681978102C08FEF31
:1007E0009FEF2B96E2E10C94C104FC01059061504F
:1007F00070400110D8F7809590958E0F9F1F089537
:10080000FC016150704001900110D8F780959095DF
:100810008E0F9F1F08950F931F93CF93DF93FB01BC
:10082000238121FD03C08FEF9FEF2CC022FF16C054
:1008300046815781248135814217530744F4A081B2
:10084000B1819D012F5F3F4F318320838C9326819F
:1008500037812F5F3F4F3783268314C08B01EC0114
:10086000FB010084F185E02D0995892BE1F6D80183
:1008700016968D919C911797019617969C938E933F
:100880001697CE01DF91CF911F910F910895FA0134
:10089000AA27283051F1203181F1E8946F936E7FBF
:1008A0006E5F7F4F8F4F9F4FAF4FB1E03ED0B4E0B0
:1008B0003CD0670F781F891F9A1FA11D680F791FF1
:1008C0008A1F911DA11D6A0F711D811D911DA11D02
:1008D00020D009F468943F912AE0269F1124301912
:1008E000305D3193DEF6CF010895462F4770405DAD
:1008F0004193B3E00FD0C9F7F6CF462F4F70405D5C
:100900004A3318F0495D31FD4052419302D0A9F7B6
:10091000EACFB4E0A6959795879577956795BA95B0
:10092000C9F700976105710508959B01AC010A2E76
:1009300006945795479537952795BA95C9F7620F4D
:10094000731F841F951FA01D08952F923F924F92F1
:100950005F926F927F928F929F92AF92BF92CF924F
:10096000DF92EF92FF920F931F93CF93DF93CDB758
:10097000DEB7CA1BDB0B0FB6F894DEBF0FBECDBFD0
:1009800009942A88398848885F846E847D848C84A1
:100990009B84AA84B984C884DF80EE80FD800C81AA
:1009A0001B81AA81B981CE0FD11D0FB6F894DEBF8D
:0C09B0000FBECDBFED010895F894FFCFFD
:1009BC00000000020000000053000000000044652D
:1009CC00766963652049443D25640A0D0025640958
:0A09DC00202564092025640A0000AC
:00000001FF
