:100000000C94B5000C94D2000C94D2000C94D20045
:100010000C94D2000C94D2000C94D2000C94D20018
:100020000C94D2000C94D2000C94D2000C948C014D
:100030000C94D2000C94D2000C94D2000C94D200F8
:100040000C946E010C94D2000C94D2000C94D2004B
:100050000C94D2000C94D2000C94D2000C94D200D8
:100060000C94D2000C94D2006E616E00696E660032
:1000700000407A10F35A00A0724E18090010A5D45F
:10008000E80000E87648170000E40B54020000CABC
:100090009A3B000000E1F505000080969800000002
:1000A00040420F000000A086010000001027000061
:1000B0000000E803000000006400000000000A00E7
:1000C000000000000100000000002C76D888DC67EA
:1000D0004F0823DFC1DFAE59E1B1B796E5E3E45342
:1000E000C63AE651997696E8E6C28426EB898C9B5F
:1000F00062ED407C6FFCEFBC9C9F40F2BAA56FA5FF
:10010000F490055A2AF75C936B6CF9676DC11BFC80
:10011000E0E40D47FEF520E6B500D0ED902E03009B
:10012000943577050080841E080000204E0A0000E8
:1001300000C80C333333330F986E12831141EF8DA7
:100140002114893BE65516CFFEE6DB18D1844B38E7
:100150001BF77C1D901DA4BBE424203284725E2218
:100160008100C9F124ECA1E53D2711241FBECFEF8A
:10017000D8E0DEBFCDBF21E0A6E8B1E001C01D920E
:10018000A439B207E1F711E0A0E0B1E0E8E2F3E161
:1001900002C005900D92A638B107D9F70E94D5018B
:1001A0000C9492090C9400009091C00095FFFCCF34
:1001B0008093C60080E090E008958093BB0084E8BF
:1001C0008093BC008091BC0087FFFCCF8091B90078
:1001D000887F8033C1F058F48831C9F018F4811158
:1001E00014C011C0803279F0883289F00EC0883492
:1001F00051F028F4883339F0803449F006C0803556
:1002000031F0883511F481E0089582E0089580E0AE
:10021000089584E98093BC008091BC0084FDFCCFEC
:10022000089584EA8093BC008091BC0087FFFCCFD6
:100230008091B900887F883021F0803111F081E011
:10024000089580E008950F931F93CF93DF93D82FE5
:100250008B01C3E10E941101882341F0CF3F11F0CF
:10026000C150F8CF0E940901C1E01DC086EA0E947A
:10027000DD00882331F0CF3F99F70E940901C2E0E9
:1002800012C08D2F0E94DD0081110AC0F80180810B
:100290000E94DD00C82F811105C00E94090103C022
:1002A000C3E001C0C4E08C2FDF91CF911F910F916B
:1002B000089590917C00907F8F70892B80937C00B3
:1002C00080917A00806480937A0080917A0086FD24
:1002D000FCCF809178009091790008951F920F9241
:1002E0000FB60F9211248F939F9386B58A5F86BDB8
:1002F00010928D0110928C0180918A0190918B0156
:10030000019690938B0180938A019F918F910F901A
:100310000FBE0F901F9018951F920F920FB60F925D
:1003200011242F938F939F93EF93FF9380910C0150
:100330008630E0F420910C0181E090E001C0880F4C
:100340002A95EAF785B9E0910C01F0E0EE0FFF1F66
:10035000E35FFE4F808191819093890080938800B4
:1003600080910C018F5F80930C0115C080910C016E
:10037000863089F4E0910C01F0E0EE0FFF1FE35F9F
:10038000FE4F808191819093890080938800109224
:100390000C0185B115B8FF91EF919F918F912F912D
:1003A0000F900FBE0F901F901895CF93DF93CDB78E
:1003B000DEB7CE57D1090FB6F894DEBF0FBECDBF62
:1003C00084B19FEF94B91092810086B3876086BB99
:1003D0008091810088608093810010928500109246
:1003E000840020910D0130910E01309389002093FB
:1003F000880080916F00826080936F0080918100FF
:1004000082608093810081E085B9789480917C003E
:10041000806480937C0080917A00876080937A006A
:1004200080917A00806880937A0080917E0090931A
:100430007E0020E130E03093C5002093C40098E1B5
:100440009093C1008EE08093C2003093C50020934A
:10045000C4009093C1008093C2008BE191E090931F
:1004600091018093900187B18F7C87B988B18F7C8F
:1004700088B91092B90088E48093B80084E0809332
:10048000BC008AE0EB968FAFEB9788E0EA968FAFDF
:10049000EA97198213E10E941101882321F01123A8
:1004A00019F11150F8CF86EA0E94DD00882319F077
:1004B0001111F7CF17C080E00E94DD00811114C038
:1004C0000E941101811110C087EA0E94DD00811194
:1004D0000BC084E88093BC008091BC0087FFFCCFF8
:1004E0000091BB000E9409011F920F9381E491E0EB
:1004F0009F938F930E944C09BE016F5F7F4F8DE2E7
:100500000E942301BE0166587F4F8CE20E942301A6
:10051000BE0167587F4F81E30E94230188E08983F1
:10052000BE016F5F7F4F8DE20E9423012FEF39EFF5
:1005300080E0215030408040E1F700C000008CEFA7
:10054000EC968FAFEC979FEF9F938F9300E511E0B0
:100550001F930F930E944C09BE0165587F4F8EE197
:100560000E94230185E0ED968FAFED971F928F9348
:100570001F930F930E944C09BE0164587F4F8FE177
:100580000E9423010FB6F894DEBF0FBECDBF98E6E0
:10059000492E91E0592E05E311E089E2682E81E0B1
:1005A000782E9E012F5F3F4F690143015801312C86
:1005B000E12CF12C34E0331202C086E001C0832D1F
:1005C0000E945901F601EE0DFF1DEF96FFAFEEAF51
:1005D000EF97BC0180E090E00E94E608EF96EEAD58
:1005E000FFADEF976083718382839383F4E0EF0E16
:1005F000F11C24E1E216F104E9F6F601608571854B
:10060000828593850E94B708AB01F5012081318175
:100610002617370718F44451510909C0F401208105
:1006200031816217730728F4AB014C5E5F4F518331
:1006300040833394F2E0AF0EB11C22E0820E911C95
:1006400034E1C30ED11C85E03812B2CFE4E5F1E00D
:10065000FF93EF930E944C090F900F90E12CF12C27
:10066000F801808191810E5F1F4F9F938F93FF92BE
:10067000EF925F924F920E944C09FFEFEF1AFF0A30
:100680000F900F900F900F900F900F9026E0E216B2
:10069000F10431F780E791E09F938F930E944C091A
:1006A0000F900F9000E010E0F30180819181F2E063
:1006B0006F0E711C9F938F931F930F935F924F92B6
:1006C0000E944C090F5F1F4F0F900F900F900F90DB
:1006D0000F900F900630110539F782E591E00E94E6
:1006E00062092FEF33EC89E0215030408040E1F780
:1006F00000C0000050CFA0E1B0E0E1E8F3E00C94CE
:10070000F8067C011B016A01FC01178216828381B5
:1007100081FF44C39E012F5F3F4F3901F701938151
:10072000F10193FD859193FF81911F01882309F4C5
:1007300031C3853239F493FD859193FF81911F0177
:10074000853239F4B70190E00E941D085601650119
:10075000E5CF10E0512C912CFFE1F915D8F08B3248
:1007600079F038F4803279F08332A1F4F92DF06118
:100770002EC08D3261F0803369F4292D21602DC0A7
:10078000392D3260932E892D8460982E2AC0E92D50
:10079000E86015C097FC2DC020ED280F2A3088F4A2
:1007A00096FE06C03AE0139F200D1124122F19C0A7
:1007B0008AE0589E200D1124522EE92DE0629E2ED3
:1007C00010C08E3231F496FCE5C2F92DF0649F2EF4
:1007D00008C08C3621F4292D2068922E02C088365C
:1007E00041F4F10193FD859193FF81911F018111E6
:1007F000B3CF9BEB980F933020F4992D9061805EDE
:1008000007C09BE9980F933008F066C1992D9F7E31
:1008100096FF16E09F73992E853619F49064992EF1
:1008200008C0863621F4392F3068932E02C011118A
:10083000115097FE07C01C3350F444244394410EDA
:1008400027E00BC0183038F027E017E005C027E09C
:100850009CE3492E02C0212F412C560184E0A80EB2
:10086000B11CF6016081718182819381042DA30105
:100870000E942F076C01F981FC87F0FF02C0F3FF93
:1008800006C091FC06C092FE06C000E205C00DE263
:1008900003C00BE201C000E08C858C7019F00111DF
:1008A0005AC29BC297FE10C04C0CFC85F4FF04C0DA
:1008B0008A81813309F44A94141474F528E02415CC
:1008C00078F588E0482E2CC096FC2AC0812F90E055
:1008D0008C159D059CF03CEFC3163FEFD30674F0DA
:1008E000892D8068982E0AC0E2E0F0E0EC0FFD1F31
:1008F000E10FF11D8081803319F411501111F4CFF3
:1009000097FE0EC044244394410E812F90E0C816F8
:10091000D9062CF41C1904C04424439401C010E0EF
:1009200097FE06C01C141D0434F4C601019605C0D0
:1009300085E090E002C081E090E001110196112372
:1009400031F0212F30E02F5F3F4F820F931F252D75
:1009500030E08217930714F4581A01C0512C892DE6
:10096000897049F4552039F0B70180E290E00E9487
:100970001D085A94F7CF002329F0B701802F90E08B
:100980000E941D0893FC09C0552039F0B70180E38F
:1009900090E00E941D085A94F7CF97FE4CC0460184
:1009A000D7FE02C0812C912CC60188199909F30148
:1009B000E80FF91FFE87ED87960124193109388B5E
:1009C0002F87012F10E01195019511093FEF831634
:1009D000930629F4B7018EE290E00E941D08C81426
:1009E000D9044CF08F8598898815990524F4ED85F4
:1009F000FE85818101C080E3F1E08F1A91082D8589
:100A00003E852F5F3F4F3E872D87801691062CF045
:100A1000B70190E00E941D08D9CFC814D90441F451
:100A20009A81963320F4953319F43C8534FF81E3A1
:100A3000B70190E04EC08A81813319F09C859F7E7A
:100A40009C87B70190E00E941D08111105C094FC1D
:100A500018C085E690E017C0B7018EE290E00E94D2
:100A60001D081E5F82E001E0080FF301E80FF11D91
:100A70008081B70190E00E941D08802F0113F3CF01
:100A8000E6CF85E490E0B7010E941D08D7FC06C0C0
:100A9000C114D10441F4EC85E4FF05C0D194C194A4
:100AA000D1088DE201C08BE2B70190E00E941D08E1
:100AB00080E32AE0C216D1042CF08F5FFAE0CF1A4F
:100AC000D108F7CFB70190E00E941D08B701C60119
:100AD000C0960E941D0854C1833631F0833779F0E7
:100AE000833509F056C020C0560132E0A30EB11C78
:100AF000F6018081898301E010E0630112C0560194
:100B0000F2E0AF0EB11CF601C080D18096FE03C0AA
:100B1000612F70E002C06FEF7FEFC6010E941208E4
:100B20008C01F92DFF7714C0560122E0A20EB11CF2
:100B3000F601C080D18096FE03C0612F70E002C034
:100B40006FEF7FEFC6010E9407088C01F92DF06856
:100B50009F2EF3FD1AC0852D90E008171907A8F401
:100B6000B70180E290E00E941D085A94F4CFF6018C
:100B700097FC859197FE81916F01B70190E00E94EB
:100B80001D0851105A94015011090115110579F7EA
:100B9000F7C0843611F0893661F5560197FE09C019
:100BA00024E0A20EB11CF6016081718182819381E3
:100BB0000AC0F2E0AF0EB11CF60160817181072E10
:100BC000000C880B990BF92DFF769F2E97FF09C01B
:100BD00090958095709561957F4F8F4F9F4FF068EE
:100BE0009F2E2AE030E0A3010E945908C82EC618A3
:100BF0003FC0092D853721F40F7E2AE030E01DC06B
:100C0000097F8F3691F018F4883559F0C3C08037CA
:100C100019F0883711F0BEC0006104FF09C00460FC
:100C200007C094FE08C0066006C028E030E005C09A
:100C300020E130E002C020E132E0560107FF09C0A8
:100C400084E0A80EB11CF6016081718182819381DC
:100C500008C0F2E0AF0EB11CF6016081718180E046
:100C600090E0A3010E945908C82EC6180F77902E55
:100C700096FE0BC0092D0E7FC11650F494FE0AC0DB
:100C800092FC08C0092D0E7E05C0DC2C092D03C086
:100C9000DC2C01C0D12E04FF0DC0FE01EC0DF11DB6
:100CA0008081803311F4097E09C002FF06C0D3940D
:100CB000D39404C0802F867809F0D39403FD11C02B
:100CC00000FF06C01C2DD51480F4150D1D190DC094
:100CD000D51458F4B70180E290E00E941D08D39427
:100CE000F7CFD51410F45D1801C0512C04FF10C0CB
:100CF000B70180E390E00E941D0802FF17C001FDCC
:100D000003C088E790E002C088E590E0B7010CC01E
:100D1000802F867859F001FF02C08BE201C080E28B
:100D200007FD8DE2B70190E00E941D08C11638F45E
:100D3000B70180E390E00E941D081150F7CFCA94DC
:100D4000F301EC0DF11D8081B70190E00E941D08B8
:100D5000C110F5CF15C0F4E0F51560F584E0581A20
:100D600093FE1FC0011127C02C8523FF2AC008E66F
:100D700010E0392D3071932EF8018491811124C037
:100D8000552009F4E4CCB70180E290E00E941D08F0
:100D90005A94F6CFF7018681978126C08FEF9FEF97
:100DA00023C0B70180E290E00E941D085A945110C0
:100DB000F8CFD8CF512CB701802F90E00E941D08AA
:100DC000D3CF0CE610E0D5CF91108052B70190E060
:100DD0000E941D080F5F1F4FCFCF23E0251510F491
:100DE00083E0BDCF512CC0CF6096E2E10C94140794
:100DF0002F923F924F925F926F927F928F929F922B
:100E0000AF92BF92CF92DF92EF92FF920F931F9318
:100E1000CF93DF93CDB7DEB7CA1BDB0B0FB6F894C9
:100E2000DEBF0FBECDBF09942A88398848885F8409
:100E30006E847D848C849B84AA84B984C884DF807A
:100E4000EE80FD800C811B81AA81B981CE0FD11D5E
:100E50000FB6F894DEBF0FBECDBFED010895283068
:100E600008F027E03327DA01990F311D87FD9160E3
:100E700000966105710539F432602E5F3D9330E3D1
:100E80002A95E1F708959F3F30F08038710561059C
:100E900009F03C5F3C5F3D93913008F08068911D04
:100EA000DF93CF931F930F93FF92EF92192F987FA9
:100EB0009695E92F96959695E90FFF27E653FF4FF4
:100EC00099273327EE24FF24A701E7010590089412
:100ED000079428F4360FE71EF81E491F511D660FB0
:100EE000771F881F991F0694A1F70590079428F48F
:100EF000E70EF81E491F561FC11D770F881F991F47
:100F0000661F0694A1F70590079428F4F80E491F70
:100F1000561FC71FD11D880F991F661F771F069484
:100F2000A1F70590079420F4490F561FC71FD81F3B
:100F3000990F661F771F881F0694A9F78491109553
:100F4000177041F0D695C79557954795F794E79454
:100F50001A95C1F7E0E7F0E0689415901591359186
:100F60006591959105907FE27395E118F10A430B25
:100F7000560BC90BD009C0F7E10CF11E431F561FD9
:100F8000C91FD01D7EF4703311F48A95E6CFE89422
:100F9000015030F0080F0AF40027021708F4202F40
:100FA0002395022F7A3328F079E37D932A95E9F788
:100FB00010C07D932A9589F6069497956795379585
:100FC00017951794E118F10A430B560BC90BD0097A
:100FD00098F023957E9173957A3308F070E37C93B3
:100FE0002013B8F77E9170617D9330F0839571E3A3
:100FF0007D9370E32A95E1F71124EF90FF900F9114
:101000001F91CF91DF91992787FD90950895FC015D
:101010000590615070400110D8F7809590958E0F23
:101020009F1F0895FC016150704001900110D8F796
:10103000809590958E0F9F1F08950F931F93CF93C8
:10104000DF93FB01238121FD03C08FEF9FEF2CC0B5
:1010500022FF16C0468157812481358142175307EC
:1010600044F4A081B1819D012F5F3F4F31832083E4
:101070008C93268137812F5F3F4F3783268314C09F
:101080008B01EC01FB010084F185E02D0995892B92
:10109000E1F6D80116968D919C91179701961796B7
:1010A0009C938E931697CE01DF91CF911F910F9154
:1010B0000895FA01AA27283051F1203181F1E894EE
:1010C0006F936E7F6E5F7F4F8F4F9F4FAF4FB1E03B
:1010D0003ED0B4E03CD0670F781F891F9A1FA11D36
:1010E000680F791F8A1F911DA11D6A0F711D811D37
:1010F000911DA11D20D009F468943F912AE0269FFC
:1011000011243019305D3193DEF6CF010895462F5A
:101110004770405D4193B3E00FD0C9F7F6CF462F3B
:101120004F70405D4A3318F0495D31FD40524193A4
:1011300002D0A9F7EACFB4E0A69597958795779561
:101140006795BA95C9F700976105710508959B01E8
:10115000AC010A2E06945795479537952795BA9571
:10116000C9F7620F731F841F951FA01D08950E9469
:101170002B0988F09F5798F0B92F9927B751B0F0F5
:10118000E1F0660F771F881F991F1AF0BA95C9F70B
:1011900014C0B13091F00E944509B1E008950C945B
:1011A0004509672F782F8827B85F39F0B93FCCF30E
:1011B000869577956795B395D9F73EF49095809588
:1011C000709561957F4F8F4F9F4F0895E89409C0A8
:1011D00097FB3EF490958095709561957F4F8F4F6A
:1011E0009F4F9923A9F0F92F96E9BB279395F69580
:1011F000879577956795B795F111F8CFFAF4BB0FFE
:1012000011F460FF1BC06F5F7F4F8F4F9F4F16C061
:10121000882311F096E911C0772321F09EE8872FEB
:10122000762F05C0662371F096E8862F70E060E0A7
:101230002AF09A95660F771F881FDAF7880F969520
:10124000879597F9089557FD9058440F551F59F009
:101250005F3F71F04795880F97FB991F61F09F3FA3
:1012600079F087950895121613061406551FF2CFCC
:101270004695F1DF08C0161617061806991FF1CF1C
:1012800086957105610508940895E894BB27662743
:101290007727CB0197F90895A0E0B0E0E2E5F9E007
:1012A0000C940807AE014B5F5F4FFA016191719199
:1012B000AF0180919001909191010E947B03E2E047
:1012C0000C9424070F931F93CF93DF93E091900129
:1012D000F0919101238121FF1BC08C01D0E0C0E07F
:1012E000F80181918F016091900170919101DB0172
:1012F0001896ED91FC911997882331F00995892B67
:1013000079F3DFEFCFEFECCF8AE00995892B19F065
:101310008FEF9FEF02C08D2F9C2FDF91CF911F91F8
:081320000F910895F894FFCF2E
:10132800FF03FF03FF03FF03FF03FF030186068696
:101338000686068606860686061C750000000200DC
:10134800000000D40000000000FF03FF03FF03FFBC
:1013580003FF030700000000000000000000008CED
:10136800004465766963652049443D25640A0D009B
:1013780025640A004D6178506F742E2066696E6787
:10138800657223203D3E200025643A256420200014
:101398000A4D696E506F742E2066696E67657223F8
:0613A800203D3E20000084
:00000001FF
