:100000000C9434000C9446000C9446000C9446006A
:100010000C9446000C9446000C9446000C94460048
:100020000C9446000C9446000C9446000C94460038
:100030000C9446000C9446000C9446000C94460028
:100040000C9448000C9446000C9446000C94460016
:100050000C9446000C9446000C9446000C94460008
:100060000C9446000C94460011241FBECFEFD8E03C
:10007000DEBFCDBF21E0A0E0B1E001C01D92A43001
:10008000B207E1F70E9466000C9487000C94000010
:100090001F920F920FB60F9211248F939F9386B5E4
:1000A0008A5F86BD109203011092020180910001C7
:1000B00090910101019690930101809300019F911D
:1000C0008F910F900FBE0F901F901895219A8091DD
:1000D000800080688093800080918000836080939E
:1000E00080008FE39CE99093870080938600809145
:1000F000860090918700805D97409093890080935F
:10010000880080918100826080938100FFCFF89405
:02011000FFCF1F
:00000001FF
